{
  "_format": "hh-sol-artifact-1",
  "contractName": "NFTMarketplace_v2",
  "sourceName": "contracts/NFTMarketplace_v2.sol",
  "abi": [
    {
      "inputs": [],
      "stateMutability": "nonpayable",
      "type": "constructor"
    },
    {
      "inputs": [
        {
          "internalType": "uint256",
          "name": "tokenId",
          "type": "uint256"
        }
      ],
      "name": "ItemNotFound",
      "type": "error"
    },
    {
      "anonymous": false,
      "inputs": [
        {
          "indexed": true,
          "internalType": "address",
          "name": "owner",
          "type": "address"
        },
        {
          "indexed": true,
          "internalType": "address",
          "name": "approved",
          "type": "address"
        },
        {
          "indexed": true,
          "internalType": "uint256",
          "name": "tokenId",
          "type": "uint256"
        }
      ],
      "name": "Approval",
      "type": "event"
    },
    {
      "anonymous": false,
      "inputs": [
        {
          "indexed": true,
          "internalType": "address",
          "name": "owner",
          "type": "address"
        },
        {
          "indexed": true,
          "internalType": "address",
          "name": "operator",
          "type": "address"
        },
        {
          "indexed": false,
          "internalType": "bool",
          "name": "approved",
          "type": "bool"
        }
      ],
      "name": "ApprovalForAll",
      "type": "event"
    },
    {
      "anonymous": false,
      "inputs": [
        {
          "indexed": false,
          "internalType": "uint256",
          "name": "_fromTokenId",
          "type": "uint256"
        },
        {
          "indexed": false,
          "internalType": "uint256",
          "name": "_toTokenId",
          "type": "uint256"
        }
      ],
      "name": "BatchMetadataUpdate",
      "type": "event"
    },
    {
      "anonymous": false,
      "inputs": [
        {
          "indexed": false,
          "internalType": "uint256",
          "name": "tokenId",
          "type": "uint256"
        },
        {
          "indexed": true,
          "internalType": "address",
          "name": "from",
          "type": "address"
        },
        {
          "indexed": true,
          "internalType": "address",
          "name": "to",
          "type": "address"
        },
        {
          "indexed": false,
          "internalType": "uint256",
          "name": "price",
          "type": "uint256"
        }
      ],
      "name": "ItemSold",
      "type": "event"
    },
    {
      "anonymous": false,
      "inputs": [
        {
          "indexed": false,
          "internalType": "uint256",
          "name": "_tokenId",
          "type": "uint256"
        }
      ],
      "name": "MetadataUpdate",
      "type": "event"
    },
    {
      "anonymous": false,
      "inputs": [
        {
          "indexed": true,
          "internalType": "address",
          "name": "previousOwner",
          "type": "address"
        },
        {
          "indexed": true,
          "internalType": "address",
          "name": "newOwner",
          "type": "address"
        }
      ],
      "name": "OwnershipTransferred",
      "type": "event"
    },
    {
      "anonymous": false,
      "inputs": [
        {
          "indexed": true,
          "internalType": "address",
          "name": "from",
          "type": "address"
        },
        {
          "indexed": true,
          "internalType": "address",
          "name": "to",
          "type": "address"
        },
        {
          "indexed": true,
          "internalType": "uint256",
          "name": "tokenId",
          "type": "uint256"
        }
      ],
      "name": "Transfer",
      "type": "event"
    },
    {
      "inputs": [
        {
          "internalType": "address",
          "name": "to",
          "type": "address"
        },
        {
          "internalType": "uint256",
          "name": "tokenId",
          "type": "uint256"
        }
      ],
      "name": "approve",
      "outputs": [],
      "stateMutability": "nonpayable",
      "type": "function"
    },
    {
      "inputs": [
        {
          "internalType": "uint256",
          "name": "tokenId",
          "type": "uint256"
        },
        {
          "internalType": "uint256",
          "name": "price",
          "type": "uint256"
        },
        {
          "internalType": "uint256",
          "name": "durationInSeconds",
          "type": "uint256"
        }
      ],
      "name": "auctionItem",
      "outputs": [],
      "stateMutability": "nonpayable",
      "type": "function"
    },
    {
      "inputs": [
        {
          "internalType": "address",
          "name": "owner",
          "type": "address"
        }
      ],
      "name": "balanceOf",
      "outputs": [
        {
          "internalType": "uint256",
          "name": "",
          "type": "uint256"
        }
      ],
      "stateMutability": "view",
      "type": "function"
    },
    {
      "inputs": [
        {
          "internalType": "uint256",
          "name": "tokenId",
          "type": "uint256"
        },
        {
          "internalType": "uint256",
          "name": "amount",
          "type": "uint256"
        }
      ],
      "name": "bid",
      "outputs": [],
      "stateMutability": "nonpayable",
      "type": "function"
    },
    {
      "inputs": [
        {
          "internalType": "uint256",
          "name": "tokenId",
          "type": "uint256"
        }
      ],
      "name": "completeAuction",
      "outputs": [],
      "stateMutability": "nonpayable",
      "type": "function"
    },
    {
      "inputs": [
        {
          "internalType": "uint256",
          "name": "tokenId",
          "type": "uint256"
        }
      ],
      "name": "createMarketSale",
      "outputs": [],
      "stateMutability": "nonpayable",
      "type": "function"
    },
    {
      "inputs": [
        {
          "internalType": "string",
          "name": "tokenURI",
          "type": "string"
        }
      ],
      "name": "createToken",
      "outputs": [
        {
          "internalType": "uint256",
          "name": "",
          "type": "uint256"
        }
      ],
      "stateMutability": "nonpayable",
      "type": "function"
    },
    {
      "inputs": [],
      "name": "fetchAuctionItems",
      "outputs": [
        {
          "components": [
            {
              "internalType": "uint256",
              "name": "tokenId",
              "type": "uint256"
            },
            {
              "internalType": "address",
              "name": "owner",
              "type": "address"
            },
            {
              "internalType": "uint256",
              "name": "price",
              "type": "uint256"
            },
            {
              "internalType": "enum Status",
              "name": "status",
              "type": "uint8"
            },
            {
              "internalType": "uint256",
              "name": "netPrice",
              "type": "uint256"
            },
            {
              "internalType": "uint256",
              "name": "startAt",
              "type": "uint256"
            },
            {
              "internalType": "uint256",
              "name": "endAt",
              "type": "uint256"
            }
          ],
          "internalType": "struct MarketItem[]",
          "name": "",
          "type": "tuple[]"
        }
      ],
      "stateMutability": "view",
      "type": "function"
    },
    {
      "inputs": [],
      "name": "fetchMarketItems",
      "outputs": [
        {
          "components": [
            {
              "internalType": "uint256",
              "name": "tokenId",
              "type": "uint256"
            },
            {
              "internalType": "address",
              "name": "owner",
              "type": "address"
            },
            {
              "internalType": "uint256",
              "name": "price",
              "type": "uint256"
            },
            {
              "internalType": "enum Status",
              "name": "status",
              "type": "uint8"
            },
            {
              "internalType": "uint256",
              "name": "netPrice",
              "type": "uint256"
            },
            {
              "internalType": "uint256",
              "name": "startAt",
              "type": "uint256"
            },
            {
              "internalType": "uint256",
              "name": "endAt",
              "type": "uint256"
            }
          ],
          "internalType": "struct MarketItem[]",
          "name": "",
          "type": "tuple[]"
        }
      ],
      "stateMutability": "view",
      "type": "function"
    },
    {
      "inputs": [],
      "name": "fetchMyNFTs",
      "outputs": [
        {
          "components": [
            {
              "internalType": "uint256",
              "name": "tokenId",
              "type": "uint256"
            },
            {
              "internalType": "address",
              "name": "owner",
              "type": "address"
            },
            {
              "internalType": "uint256",
              "name": "price",
              "type": "uint256"
            },
            {
              "internalType": "enum Status",
              "name": "status",
              "type": "uint8"
            },
            {
              "internalType": "uint256",
              "name": "netPrice",
              "type": "uint256"
            },
            {
              "internalType": "uint256",
              "name": "startAt",
              "type": "uint256"
            },
            {
              "internalType": "uint256",
              "name": "endAt",
              "type": "uint256"
            }
          ],
          "internalType": "struct MarketItem[]",
          "name": "",
          "type": "tuple[]"
        }
      ],
      "stateMutability": "view",
      "type": "function"
    },
    {
      "inputs": [
        {
          "internalType": "uint256",
          "name": "tokenId",
          "type": "uint256"
        }
      ],
      "name": "fetchNFT",
      "outputs": [
        {
          "components": [
            {
              "internalType": "uint256",
              "name": "tokenId",
              "type": "uint256"
            },
            {
              "internalType": "address",
              "name": "owner",
              "type": "address"
            },
            {
              "internalType": "uint256",
              "name": "price",
              "type": "uint256"
            },
            {
              "internalType": "enum Status",
              "name": "status",
              "type": "uint8"
            },
            {
              "internalType": "uint256",
              "name": "netPrice",
              "type": "uint256"
            },
            {
              "internalType": "uint256",
              "name": "startAt",
              "type": "uint256"
            },
            {
              "internalType": "uint256",
              "name": "endAt",
              "type": "uint256"
            }
          ],
          "internalType": "struct MarketItem",
          "name": "",
          "type": "tuple"
        }
      ],
      "stateMutability": "view",
      "type": "function"
    },
    {
      "inputs": [
        {
          "internalType": "uint256",
          "name": "tokenId",
          "type": "uint256"
        }
      ],
      "name": "getApproved",
      "outputs": [
        {
          "internalType": "address",
          "name": "",
          "type": "address"
        }
      ],
      "stateMutability": "view",
      "type": "function"
    },
    {
      "inputs": [
        {
          "internalType": "uint256",
          "name": "tokenId",
          "type": "uint256"
        },
        {
          "internalType": "address",
          "name": "bidder",
          "type": "address"
        }
      ],
      "name": "getBid",
      "outputs": [
        {
          "internalType": "uint256",
          "name": "",
          "type": "uint256"
        }
      ],
      "stateMutability": "view",
      "type": "function"
    },
    {
      "inputs": [],
      "name": "getComission",
      "outputs": [
        {
          "internalType": "uint256",
          "name": "",
          "type": "uint256"
        }
      ],
      "stateMutability": "view",
      "type": "function"
    },
    {
      "inputs": [
        {
          "internalType": "uint256",
          "name": "tokenId",
          "type": "uint256"
        }
      ],
      "name": "getHighestBidder",
      "outputs": [
        {
          "internalType": "address",
          "name": "",
          "type": "address"
        }
      ],
      "stateMutability": "view",
      "type": "function"
    },
    {
      "inputs": [
        {
          "internalType": "address",
          "name": "owner",
          "type": "address"
        },
        {
          "internalType": "address",
          "name": "operator",
          "type": "address"
        }
      ],
      "name": "isApprovedForAll",
      "outputs": [
        {
          "internalType": "bool",
          "name": "",
          "type": "bool"
        }
      ],
      "stateMutability": "view",
      "type": "function"
    },
    {
      "inputs": [
        {
          "internalType": "uint256",
          "name": "tokenId",
          "type": "uint256"
        },
        {
          "internalType": "uint256",
          "name": "price",
          "type": "uint256"
        }
      ],
      "name": "listItem",
      "outputs": [],
      "stateMutability": "nonpayable",
      "type": "function"
    },
    {
      "inputs": [],
      "name": "minAuctionIncrement",
      "outputs": [
        {
          "internalType": "uint256",
          "name": "",
          "type": "uint256"
        }
      ],
      "stateMutability": "view",
      "type": "function"
    },
    {
      "inputs": [],
      "name": "name",
      "outputs": [
        {
          "internalType": "string",
          "name": "",
          "type": "string"
        }
      ],
      "stateMutability": "view",
      "type": "function"
    },
    {
      "inputs": [],
      "name": "owner",
      "outputs": [
        {
          "internalType": "address",
          "name": "",
          "type": "address"
        }
      ],
      "stateMutability": "view",
      "type": "function"
    },
    {
      "inputs": [
        {
          "internalType": "uint256",
          "name": "tokenId",
          "type": "uint256"
        }
      ],
      "name": "ownerOf",
      "outputs": [
        {
          "internalType": "address",
          "name": "",
          "type": "address"
        }
      ],
      "stateMutability": "view",
      "type": "function"
    },
    {
      "inputs": [],
      "name": "renounceOwnership",
      "outputs": [],
      "stateMutability": "nonpayable",
      "type": "function"
    },
    {
      "inputs": [
        {
          "internalType": "address",
          "name": "from",
          "type": "address"
        },
        {
          "internalType": "address",
          "name": "to",
          "type": "address"
        },
        {
          "internalType": "uint256",
          "name": "tokenId",
          "type": "uint256"
        }
      ],
      "name": "safeTransferFrom",
      "outputs": [],
      "stateMutability": "nonpayable",
      "type": "function"
    },
    {
      "inputs": [
        {
          "internalType": "address",
          "name": "from",
          "type": "address"
        },
        {
          "internalType": "address",
          "name": "to",
          "type": "address"
        },
        {
          "internalType": "uint256",
          "name": "tokenId",
          "type": "uint256"
        },
        {
          "internalType": "bytes",
          "name": "data",
          "type": "bytes"
        }
      ],
      "name": "safeTransferFrom",
      "outputs": [],
      "stateMutability": "nonpayable",
      "type": "function"
    },
    {
      "inputs": [
        {
          "internalType": "address",
          "name": "operator",
          "type": "address"
        },
        {
          "internalType": "bool",
          "name": "approved",
          "type": "bool"
        }
      ],
      "name": "setApprovalForAll",
      "outputs": [],
      "stateMutability": "nonpayable",
      "type": "function"
    },
    {
      "inputs": [
        {
          "internalType": "bytes4",
          "name": "interfaceId",
          "type": "bytes4"
        }
      ],
      "name": "supportsInterface",
      "outputs": [
        {
          "internalType": "bool",
          "name": "",
          "type": "bool"
        }
      ],
      "stateMutability": "view",
      "type": "function"
    },
    {
      "inputs": [],
      "name": "symbol",
      "outputs": [
        {
          "internalType": "string",
          "name": "",
          "type": "string"
        }
      ],
      "stateMutability": "view",
      "type": "function"
    },
    {
      "inputs": [
        {
          "internalType": "uint256",
          "name": "tokenId",
          "type": "uint256"
        }
      ],
      "name": "tokenURI",
      "outputs": [
        {
          "internalType": "string",
          "name": "",
          "type": "string"
        }
      ],
      "stateMutability": "view",
      "type": "function"
    },
    {
      "inputs": [
        {
          "internalType": "address",
          "name": "from",
          "type": "address"
        },
        {
          "internalType": "address",
          "name": "to",
          "type": "address"
        },
        {
          "internalType": "uint256",
          "name": "tokenId",
          "type": "uint256"
        }
      ],
      "name": "transferFrom",
      "outputs": [],
      "stateMutability": "nonpayable",
      "type": "function"
    },
    {
      "inputs": [
        {
          "internalType": "address",
          "name": "newOwner",
          "type": "address"
        }
      ],
      "name": "transferOwnership",
      "outputs": [],
      "stateMutability": "nonpayable",
      "type": "function"
    },
    {
      "inputs": [
        {
          "internalType": "uint256",
          "name": "tokenId",
          "type": "uint256"
        }
      ],
      "name": "unListItem",
      "outputs": [],
      "stateMutability": "nonpayable",
      "type": "function"
    },
    {
      "inputs": [
        {
          "internalType": "uint256",
          "name": "comission",
          "type": "uint256"
        }
      ],
      "name": "updateComission",
      "outputs": [],
      "stateMutability": "nonpayable",
      "type": "function"
    },
    {
      "inputs": [],
      "name": "withdraw",
      "outputs": [],
      "stateMutability": "nonpayable",
      "type": "function"
    },
    {
      "inputs": [
        {
          "internalType": "uint256",
          "name": "tokenId",
          "type": "uint256"
        }
      ],
      "name": "withdrawBid",
      "outputs": [],
      "stateMutability": "payable",
      "type": "function"
    }
  ],
  "bytecode": "0x60806040526001600a55600a600b553480156200001b57600080fd5b506040518060400160405280600f81526020016e574542332044414f20546f6b656e7360881b815250604051806040016040528060048152602001635744414f60e01b8152508160009081620000729190620001a4565b506001620000818282620001a4565b5050506200009e62000098620000a960201b60201c565b620000ad565b600160085562000270565b3390565b600780546001600160a01b038381166001600160a01b0319831681179093556040519116919082907f8be0079c531659141344cd1fd0a4f28419497f9722a3daafe3b4186f6b6457e090600090a35050565b634e487b7160e01b600052604160045260246000fd5b600181811c908216806200012a57607f821691505b6020821081036200014b57634e487b7160e01b600052602260045260246000fd5b50919050565b601f8211156200019f57600081815260208120601f850160051c810160208610156200017a5750805b601f850160051c820191505b818110156200019b5782815560010162000186565b5050505b505050565b81516001600160401b03811115620001c057620001c0620000ff565b620001d881620001d1845462000115565b8462000151565b602080601f831160018114620002105760008415620001f75750858301515b600019600386901b1c1916600185901b1785556200019b565b600085815260208120601f198616915b82811015620002415788860151825594840194600190910190840162000220565b5085821015620002605787850151600019600388901b60f8161c191681555b5050505050600190811b01905550565b6142ea80620002806000396000f3fe6080604052600436106101f95760003560e01c806370a082311161010d578063b88d4fde116100a0578063dd6d3ca71161006f578063dd6d3ca7146105a5578063deb1250d146105ba578063e985e9c5146105e7578063eba1b60b14610607578063f2fde38b1461064a57600080fd5b8063b88d4fde1461050f578063be9af5361461052f578063c750cb791461054f578063c87b56dd1461058557600080fd5b806395d89b41116100dc57806395d89b411461049a578063a22cb465146104af578063a6e3617d146104cf578063a7bc77c6146104ef57600080fd5b806370a0823114610427578063715018a614610447578063883efa671461045c5780638da5cb5b1461047c57600080fd5b806323b872dd1161019057806345576f941161015f57806345576f941461038e57806354d54e0a146103bc578063598647f8146103d15780636352211e146103f1578063708d4d351461041157600080fd5b806323b872dd146103195780632e89b77a146103395780633ccfd60b1461035957806342842e0e1461036e57600080fd5b80630eaaf4c8116101cc5780630eaaf4c8146102af5780630f08efe0146102c2578063202e3740146102e457806321b62886146102f957600080fd5b806301ffc9a7146101fe57806306fdde0314610233578063081812fc14610255578063095ea7b31461028d575b600080fd5b34801561020a57600080fd5b5061021e610219366004613a02565b61066a565b60405190151581526020015b60405180910390f35b34801561023f57600080fd5b50610248610695565b60405161022a9190613a6f565b34801561026157600080fd5b50610275610270366004613a82565b610727565b6040516001600160a01b03909116815260200161022a565b34801561029957600080fd5b506102ad6102a8366004613ab7565b61074e565b005b6102ad6102bd366004613a82565b610868565b3480156102ce57600080fd5b506102d7610980565b60405161022a9190613b5f565b3480156102f057600080fd5b506102d7610a5b565b34801561030557600080fd5b506102ad610314366004613a82565b610b38565b34801561032557600080fd5b506102ad610334366004613bad565b610f82565b34801561034557600080fd5b506102ad610354366004613a82565b610fb3565b34801561036557600080fd5b506102ad610fc0565b34801561037a57600080fd5b506102ad610389366004613bad565b611099565b34801561039a57600080fd5b506103ae6103a9366004613c75565b6110b4565b60405190815260200161022a565b3480156103c857600080fd5b506102d76110ed565b3480156103dd57600080fd5b506102ad6103ec366004613cbe565b6111bf565b3480156103fd57600080fd5b5061027561040c366004613a82565b611508565b34801561041d57600080fd5b506103ae600b5481565b34801561043357600080fd5b506103ae610442366004613ce0565b611568565b34801561045357600080fd5b506102ad6115ee565b34801561046857600080fd5b506102ad610477366004613cbe565b611600565b34801561048857600080fd5b506007546001600160a01b0316610275565b3480156104a657600080fd5b50610248611956565b3480156104bb57600080fd5b506102ad6104ca366004613d09565b611965565b3480156104db57600080fd5b506102ad6104ea366004613d40565b611970565b3480156104fb57600080fd5b506102ad61050a366004613a82565b611cf4565b34801561051b57600080fd5b506102ad61052a366004613d6c565b612088565b34801561053b57600080fd5b506102ad61054a366004613a82565b6120c0565b34801561055b57600080fd5b5061027561056a366004613a82565b6000908152600f60205260409020546001600160a01b031690565b34801561059157600080fd5b506102486105a0366004613a82565b61248b565b3480156105b157600080fd5b50600a546103ae565b3480156105c657600080fd5b506105da6105d5366004613a82565b61259b565b60405161022a9190613de8565b3480156105f357600080fd5b5061021e610602366004613df6565b612677565b34801561061357600080fd5b506103ae610622366004613e29565b6000918252600e602090815260408084206001600160a01b0393909316845291905290205490565b34801561065657600080fd5b506102ad610665366004613ce0565b6126a5565b60006001600160e01b03198216632483248360e11b148061068f575061068f8261271b565b92915050565b6060600080546106a490613e4c565b80601f01602080910402602001604051908101604052809291908181526020018280546106d090613e4c565b801561071d5780601f106106f25761010080835404028352916020019161071d565b820191906000526020600020905b81548152906001019060200180831161070057829003601f168201915b5050505050905090565b60006107328261276b565b506000908152600460205260409020546001600160a01b031690565b600061075982611508565b9050806001600160a01b0316836001600160a01b0316036107cb5760405162461bcd60e51b815260206004820152602160248201527f4552433732313a20617070726f76616c20746f2063757272656e74206f776e656044820152603960f91b60648201526084015b60405180910390fd5b336001600160a01b03821614806107e757506107e78133612677565b6108595760405162461bcd60e51b815260206004820152603d60248201527f4552433732313a20617070726f76652063616c6c6572206973206e6f7420746f60448201527f6b656e206f776e6572206f7220617070726f76656420666f7220616c6c00000060648201526084016107c2565b61086383836127ca565b505050565b610870612838565b8042600d60008381526020019081526020016000206006015411156040518060400160405280601581526020017420bab1ba34b7b71034b99039ba34b6361037b832b760591b815250906108d75760405162461bcd60e51b81526004016107c29190613a6f565b506000828152600f60209081526040918290205482516060810190935260228084526001600160a01b03919091163314159291614293908301399061092f5760405162461bcd60e51b81526004016107c29190613a6f565b506000828152600e602090815260408083203380855292529091205490610957908290612891565b50506000818152600e6020908152604080832033845290915281205561097d6001600855565b50565b60606011805480602002602001604051908101604052809291908181526020016000905b82821015610a525760008481526020908190206040805160e081018252600786029092018054835260018101546001600160a01b031693830193909352600280840154918301919091526003830154919291606084019160ff90911690811115610a1057610a10613ae1565b6002811115610a2157610a21613ae1565b81526020016004820154815260200160058201548152602001600682015481525050815260200190600101906109a4565b50505050905090565b336000908152601060209081526040808320805482518185028101850190935280835260609492939192909184015b82821015610a525760008481526020908190206040805160e081018252600786029092018054835260018101546001600160a01b031693830193909352600280840154918301919091526003830154919291606084019160ff90911690811115610af657610af6613ae1565b6002811115610b0757610b07613ae1565b8152602001600482015481526020016005820154815260200160068201548152505081526020019060010190610a8a565b610b40612838565b8060026000828152600d602052604090206003015460ff166002811115610b6957610b69613ae1565b148015610b8757506000818152600d60205260409020600601544210155b6040518060400160405280601581526020017420bab1ba34b7b71034b99039ba34b6361037b832b760591b81525090610bd35760405162461bcd60e51b81526004016107c29190613a6f565b506000828152600d60209081526040808320600f835292819020548151808301909252601e82527f57696e6e6572206d75737420626520612076616c696420616464726573730000928201929092526001600160a01b039091169081610c4c5760405162461bcd60e51b81526004016107c29190613a6f565b5060018201546001600160a01b0316331480610c705750336001600160a01b038216145b6040518060600160405280602a8152602001614213602a913990610ca75760405162461bcd60e51b81526004016107c29190613a6f565b50610cb33082866129a9565b6000848152601460205260408120546012805491929183908110610cd957610cd9613e86565b6000918252602080832060016007909302019190910154888352600e825260408084206001600160a01b03888116865290845281852054600c909452908420805491909216945091928392610d2f908490613eb2565b9091555060009050610d4082612b0d565b9050610d4c8183613eb2565b6001600160a01b0384166000908152600c602052604081208054909190610d74908490613ec5565b9091555050306000908152600c602052604081208054839290610d98908490613ec5565b90915550610db19050610dab8284613eb2565b84612891565b6000888152600e602090815260408083206001600160a01b038981168086529184528285208590558c8552600f845282852080546001600160a01b0319908116909155600d808652848720600181810180548516871781556003808401805460ff199081168255988c5260108b52988b20948a5284548084018655948b529890992082546007909402019283559754828901805490941694169390931790915560028083015481830155935494810180549296919560ff1694909392909216918490811115610e8257610e82613ae1565b02179055506004820154816004015560058201548160050155600682015481600601555050610eb088612b31565b6001600160a01b0383166000908152601060205260409020610ed29089612b66565b6012805460009190610ee690600190613eb2565b81548110610ef657610ef6613e86565b60009182526020909120600790910201549050610f14601286612b7a565b60008181526014602090815260409182902087905581518b81529081018590526001600160a01b0388811692908716917f04ddd54c6b746e69ba87f862311f7670bd1d7276846778ac81cd38747b27a74691015b60405180910390a3505050505050505061097d6001600855565b610f8c3382612d48565b610fa85760405162461bcd60e51b81526004016107c290613ed8565b6108638383836129a9565b610fbb612da6565b600a55565b610fc8612da6565b610fd0612838565b7382346f167b2b938a56afdb694753c5ba7a2ab55063a9059cbb610ffc6007546001600160a01b031690565b306000908152600c60205260409081902054905160e084901b6001600160e01b03191681526001600160a01b03909216600483015260248201526044016020604051808303816000875af1158015611058573d6000803e3d6000fd5b505050506040513d601f19601f8201168201806040525081019061107c9190613f25565b50306000908152600c60205260408120556110976001600855565b565b61086383838360405180602001604052806000815250612088565b6000806110c060095490565b90506110d0600980546001019055565b6110da3382612e00565b6110e48184612f8b565b61068f81613056565b60606012805480602002602001604051908101604052809291908181526020016000905b82821015610a525760008481526020908190206040805160e081018252600786029092018054835260018101546001600160a01b031693830193909352600280840154918301919091526003830154919291606084019160ff9091169081111561117d5761117d613ae1565b600281111561118e5761118e613ae1565b8152602001600482015481526020016005820154815260200160068201548152505081526020019060010190611111565b6111c7612838565b8160026000828152600d602052604090206003015460ff1660028111156111f0576111f0613ae1565b14801561120d57506000818152600d602052604090206006015442105b60405180604001604052806011815260200170105d58dd1a5bdb881a185cc8195b991959607a1b815250906112555760405162461bcd60e51b81526004016107c29190613a6f565b506000838152600d602090815260409182902060018101548351808501909452601a84527f43616e6e6f7420626964206f6e207768617420796f75206f776e000000000000928401929092529190336001600160a01b03909116036112cd5760405162461bcd60e51b81526004016107c29190613a6f565b5080600201548310156040518060600160405280602981526020016141ea602991399061130d5760405162461bcd60e51b81526004016107c29190613a6f565b506000848152600e6020908152604080832033845282529182902054825160608101909352602980845290861192916141ea90830139906113615760405162461bcd60e51b81526004016107c29190613a6f565b506000848152600e602090815260408083203384529091528120546113869085613eb2565b604051636eb1769f60e11b815233600482015230602482015290915081907382346f167b2b938a56afdb694753c5ba7a2ab5509063dd62ed3e90604401602060405180830381865afa1580156113e0573d6000803e3d6000fd5b505050506040513d601f19601f820116820180604052508101906114049190613f42565b10156040518060600160405280602b815260200161423d602b91399061143d5760405162461bcd60e51b81526004016107c29190613a6f565b506114498133336131d5565b6000858152600e6020908152604080832033845290915281208054839290611472908490613ec5565b90915550506000858152600f6020908152604080832080546001600160a01b031916331790556014909152812054600b549091906114b09087613f5b565b90506114bc8187613ec5565b601283815481106114cf576114cf613e86565b60009182526020909120600260079092020101556114ed8187613ec5565b846002018190555050505050506115046001600855565b5050565b6000818152600260205260408120546001600160a01b03168061068f5760405162461bcd60e51b8152602060048201526018602482015277115490cdcc8c4e881a5b9d985b1a59081d1bdad95b88125160421b60448201526064016107c2565b60006001600160a01b0382166115d25760405162461bcd60e51b815260206004820152602960248201527f4552433732313a2061646472657373207a65726f206973206e6f7420612076616044820152683634b21037bbb732b960b91b60648201526084016107c2565b506001600160a01b031660009081526003602052604090205490565b6115f6612da6565b611097600061334b565b3361160a83611508565b6001600160a01b0316146040518060600160405280602b8152602001614268602b91399061164b5760405162461bcd60e51b81526004016107c29190613a6f565b506000828152600d602052604081206003015460ff16600281111561167257611672613ae1565b146040518060400160405280601b81526020017f4974656d20737461747573206d7573742062652044454641554c540000000000815250906116c75760405162461bcd60e51b81526004016107c29190613a6f565b5060408051808201909152601c81527f5072696365206d757374206265206174206c656173742031207765690000000060208201528161171a5760405162461bcd60e51b81526004016107c29190613a6f565b506000828152600d60205260408120600381018054600160ff199182168117835560028085018781556011805480850182559752855460079097027f31ecc21a745e3968a04e9570e4425bc18fa8019c68028196b546d1669c200c688101978855838701547f31ecc21a745e3968a04e9570e4425bc18fa8019c68028196b546d1669c200c69820180546001600160a01b0319166001600160a01b0390921691909117905590547f31ecc21a745e3968a04e9570e4425bc18fa8019c68028196b546d1669c200c6a82015593547f31ecc21a745e3968a04e9570e4425bc18fa8019c68028196b546d1669c200c6b909401805495969560ff909516949093169190849081111561182c5761182c613ae1565b0217905550600482810154908201556005808301549082015560069182015491015560115461185d90600190613eb2565b60008381526013602090815260408083209390935533825260109052908120611886908461339d565b6000848152600d60209081526040808320338452601090925290912080549293509091839081106118b9576118b9613e86565b60009182526020909120825460079092020190815560018083015481830180546001600160a01b0319166001600160a01b0390921691909117905560028084015481840155600380850154908401805460ff90921693909260ff1990921691849081111561192957611929613ae1565b021790555060048281015490820155600580830154908201556006918201549101556108633330856129a9565b6060600180546106a490613e4c565b61150433838361345a565b3361197a84611508565b6001600160a01b0316146040518060600160405280602b8152602001614268602b9139906119bb5760405162461bcd60e51b81526004016107c29190613a6f565b506000838152600d602052604081206003015460ff1660028111156119e2576119e2613ae1565b146040518060400160405280601b81526020017f4974656d20737461747573206d7573742062652044454641554c54000000000081525090611a375760405162461bcd60e51b81526004016107c29190613a6f565b5060408051808201909152601c81527f5072696365206d757374206265206174206c6561737420312077656900000000602082015282611a8a5760405162461bcd60e51b81526004016107c29190613a6f565b50426000611a988383613ec5565b6000868152600d60205260408120600381018054600260ff19918216811783558084018a8155600485018b90556005850189905560068501879055601280546001818101835591909752855460079097027fbb8a6a4669ba250d26cd7a459eca9d215f8307e33aebe50379bc5a3617ec34448101978855818701547fbb8a6a4669ba250d26cd7a459eca9d215f8307e33aebe50379bc5a3617ec3445820180546001600160a01b0319166001600160a01b0390921691909117905591547fbb8a6a4669ba250d26cd7a459eca9d215f8307e33aebe50379bc5a3617ec344683015593547fbb8a6a4669ba250d26cd7a459eca9d215f8307e33aebe50379bc5a3617ec34479091018054979850949660ff9091169493921691908490811115611bc257611bc2613ae1565b02179055506004828101549082015560058083015490820155600691820154910155601254611bf390600190613eb2565b60008681526014602090815260408083209390935533825260109052908120611c1c908761339d565b6000878152600d6020908152604080832033845260109092529091208054929350909183908110611c4f57611c4f613e86565b60009182526020909120825460079092020190815560018083015481830180546001600160a01b0319166001600160a01b0390921691909117905560028084015481840155600380850154908401805460ff90921693909260ff19909216918490811115611cbf57611cbf613ae1565b02179055506004828101549082015560058083015490820155600691820154910155611cec3330886129a9565b505050505050565b611cfc612838565b6000818152600d602090815260409182902060010154825160608101909352602b8084526001600160a01b0391909116331492916142689083013990611d555760405162461bcd60e51b81526004016107c29190613a6f565b506000818152600d602052604081206003015460ff166002811115611d7c57611d7c613ae1565b14156040518060400160405280601f81526020017f4974656d20737461747573206d757374206e6f742062652044454641554c540081525090611dd25760405162461bcd60e51b81526004016107c29190613a6f565b5060016000828152600d602052604090206003015460ff166002811115611dfb57611dfb613ae1565b03611e605760008181526013602052604081205460118054919291611e2290600190613eb2565b81548110611e3257611e32613e86565b60009182526020909120600790910201549050611e50601183612b7a565b6000908152601360205260409020555b60026000828152600d602052604090206003015460ff166002811115611e8857611e88613ae1565b03611f5d576000818152600d602090815260409182902060048101546002909101548351808501909452601e84527f536f6d656f6e652068617320626964206f6e207468652061756374696f6e00009284019290925214611efc5760405162461bcd60e51b81526004016107c29190613a6f565b5060008181526014602052604081205460128054919291611f1f90600190613eb2565b81548110611f2f57611f2f613e86565b60009182526020909120600790910201549050611f4d601283612b7a565b6000908152601460205260409020555b6000818152600d60205260409020600101546001600160a01b0316611f8182612b31565b6001600160a01b0381166000908152601060205260408120611fa3908461339d565b6000848152600d602090815260408083206001600160a01b038716845260109092529091208054929350909183908110611fdf57611fdf613e86565b60009182526020909120825460079092020190815560018083015481830180546001600160a01b0319166001600160a01b0390921691909117905560028084015481840155600380850154908401805460ff90921693909260ff1990921691849081111561204f5761204f613ae1565b0217905550600482810154908201556005808301549082015560069182015491015561207c3033856129a9565b505061097d6001600855565b6120923383612d48565b6120ae5760405162461bcd60e51b81526004016107c290613ed8565b6120ba84848484613528565b50505050565b6120c8612838565b6000818152601360205260409020546011805483929190829081106120ef576120ef613e86565b90600052602060002090600702016000015482148015612134575060016000838152600d602052604090206003015460ff16600281111561213257612132613ae1565b145b6040518060400160405280601481526020017324ba32b69034b9903737ba1037b71039b0b6329760611b8152509061217f5760405162461bcd60e51b81526004016107c29190613a6f565b5060008381526013602052604081205460118054919291839081106121a6576121a6613e86565b90600052602060002090600702016002015490506000601183815481106121cf576121cf613e86565b6000918252602090912060079091020160010154604051636eb1769f60e11b81523360048201523060248201526001600160a01b03909116915082907382346f167b2b938a56afdb694753c5ba7a2ab5509063dd62ed3e90604401602060405180830381865afa158015612247573d6000803e3d6000fd5b505050506040513d601f19601f8201168201806040525081019061226b9190613f42565b10156040518060600160405280602b815260200161423d602b9139906122a45760405162461bcd60e51b81526004016107c29190613a6f565b506122b082338361355b565b6122bb3033886129a9565b60006122c683612b0d565b90506122db6122d58285613eb2565b83612891565b6000878152600d602052604090206001810180546001600160a01b03191633179055600301805460ff1916905561231187612b31565b3360009081526010602090815260408083208a8452600d83529083208154600181810184559285529290932083546007909302019182558083015482820180546001600160a01b0319166001600160a01b039290921691909117905560028084015481840155600380850154908401805460ff90921693909260ff199092169184908111156123a2576123a2613ae1565b021790555060048281015490820155600580830154908201556006918201549101556001600160a01b03821660009081526010602052604090206123e69088612b66565b6000878152601360205260408120546011805491929161240890600190613eb2565b8154811061241857612418613e86565b60009182526020909120600790910201549050612436601183612b7a565b60008181526013602090815260409182902084905581518b815290810187905233916001600160a01b038716917f04ddd54c6b746e69ba87f862311f7670bd1d7276846778ac81cd38747b27a7469101610f68565b60606124968261276b565b600082815260066020526040812080546124af90613e4c565b80601f01602080910402602001604051908101604052809291908181526020018280546124db90613e4c565b80156125285780601f106124fd57610100808354040283529160200191612528565b820191906000526020600020905b81548152906001019060200180831161250b57829003601f168201915b50505050509050600061254660408051602081019091526000815290565b90508051600003612558575092915050565b81511561258a578082604051602001612572929190613f7d565b60405160208183030381529060405292505050919050565b6125938461370d565b949350505050565b6125db6040805160e08101825260008082526020820181905291810182905290606082019081526020016000815260200160008152602001600081525090565b6000828152600d6020908152604091829020825160e0810184528154815260018201546001600160a01b03169281019290925260028082015493830193909352600381015491929091606084019160ff9091169081111561263e5761263e613ae1565b600281111561264f5761264f613ae1565b8152600482015460208201526005820154604082015260069091015460609091015292915050565b6001600160a01b03918216600090815260056020908152604080832093909416825291909152205460ff1690565b6126ad612da6565b6001600160a01b0381166127125760405162461bcd60e51b815260206004820152602660248201527f4f776e61626c653a206e6577206f776e657220697320746865207a65726f206160448201526564647265737360d01b60648201526084016107c2565b61097d8161334b565b60006001600160e01b031982166380ac58cd60e01b148061274c57506001600160e01b03198216635b5e139f60e01b145b8061068f57506301ffc9a760e01b6001600160e01b031983161461068f565b6000818152600260205260409020546001600160a01b031661097d5760405162461bcd60e51b8152602060048201526018602482015277115490cdcc8c4e881a5b9d985b1a59081d1bdad95b88125160421b60448201526064016107c2565b600081815260046020526040902080546001600160a01b0319166001600160a01b03841690811790915581906127ff82611508565b6001600160a01b03167f8c5be1e5ebec7d5bd14f71427d1e84f3dd0314c0f7b2291e5b200ac8c7c3b92560405160405180910390a45050565b60026008540361288a5760405162461bcd60e51b815260206004820152601f60248201527f5265656e7472616e637947756172643a207265656e7472616e742063616c6c0060448201526064016107c2565b6002600855565b81600c6000836001600160a01b03166001600160a01b031681526020019081526020016000205410156040518060600160405280602b815260200161423d602b9139906128f15760405162461bcd60e51b81526004016107c29190613a6f565b5060405163a9059cbb60e01b81526001600160a01b0382166004820152602481018390527382346f167b2b938a56afdb694753c5ba7a2ab5509063a9059cbb906044016020604051808303816000875af1158015612953573d6000803e3d6000fd5b505050506040513d601f19601f820116820180604052508101906129779190613f25565b506001600160a01b0381166000908152600c6020526040812080548492906129a0908490613eb2565b90915550505050565b826001600160a01b03166129bc82611508565b6001600160a01b0316146129e25760405162461bcd60e51b81526004016107c290613fac565b6001600160a01b038216612a445760405162461bcd60e51b8152602060048201526024808201527f4552433732313a207472616e7366657220746f20746865207a65726f206164646044820152637265737360e01b60648201526084016107c2565b826001600160a01b0316612a5782611508565b6001600160a01b031614612a7d5760405162461bcd60e51b81526004016107c290613fac565b600081815260046020908152604080832080546001600160a01b03199081169091556001600160a01b0387811680865260038552838620805460001901905590871680865283862080546001019055868652600290945282852080549092168417909155905184937fddf252ad1be2c89b69c2b068fc378daa952ba7f163c4a11628f55a4df523b3ef91a4505050565b6000806064600a5484612b209190613ff1565b612b2a9190613f5b565b9392505050565b6000908152600d6020526040812060038101805460ff1916905560028101829055600481018290556005810182905560060155565b6000612b72838361339d565b905061086383825b8154612bc85760405162461bcd60e51b815260206004820152601d60248201527f43616e27742072656d6f76652066726f6d20656d70747920617272617900000060448201526064016107c2565b81548110612c0d5760405162461bcd60e51b81526020600482015260126024820152711a5b99195e081bdd5d081bd988189bdd5b9960721b60448201526064016107c2565b81548290612c1d90600190613eb2565b81548110612c2d57612c2d613e86565b9060005260206000209060070201828281548110612c4d57612c4d613e86565b60009182526020909120825460079092020190815560018083015481830180546001600160a01b0319166001600160a01b0390921691909117905560028084015481840155600380850154908401805460ff90921693909260ff19909216918490811115612cbd57612cbd613ae1565b021790555060048201548160040155600582015481600501556006820154816006015590505081805480612cf357612cf3614008565b6000828152602081206007600019909301928302018181556001810180546001600160a01b03191690556002810182905560038101805460ff1916905560048101829055600581018290556006015590555050565b600080612d5483611508565b9050806001600160a01b0316846001600160a01b03161480612d7b5750612d7b8185612677565b806125935750836001600160a01b0316612d9484610727565b6001600160a01b031614949350505050565b6007546001600160a01b031633146110975760405162461bcd60e51b815260206004820181905260248201527f4f776e61626c653a2063616c6c6572206973206e6f7420746865206f776e657260448201526064016107c2565b6001600160a01b038216612e565760405162461bcd60e51b815260206004820181905260248201527f4552433732313a206d696e7420746f20746865207a65726f206164647265737360448201526064016107c2565b6000818152600260205260409020546001600160a01b031615612ebb5760405162461bcd60e51b815260206004820152601c60248201527f4552433732313a20746f6b656e20616c7265616479206d696e7465640000000060448201526064016107c2565b6000818152600260205260409020546001600160a01b031615612f205760405162461bcd60e51b815260206004820152601c60248201527f4552433732313a20746f6b656e20616c7265616479206d696e7465640000000060448201526064016107c2565b6001600160a01b038216600081815260036020908152604080832080546001019055848352600290915280822080546001600160a01b0319168417905551839291907fddf252ad1be2c89b69c2b068fc378daa952ba7f163c4a11628f55a4df523b3ef908290a45050565b6000828152600260205260409020546001600160a01b03166130065760405162461bcd60e51b815260206004820152602e60248201527f45524337323155524953746f726167653a2055524920736574206f66206e6f6e60448201526d32bc34b9ba32b73a103a37b5b2b760911b60648201526084016107c2565b600082815260066020526040902061301e8282614064565b506040518281527ff8e1a15aba9398e019f0b49df1a4fde98ee17ae345cb5f6b5e2c27f5033e8ce79060200160405180910390a15050565b6040805160e0810182528281523360208083019182526000838501818152606085018281526080860183905260a0860183905260c08601839052878352600d909352949020835181559151600180840180546001600160a01b0319166001600160a01b039093169290921790915593516002808401919091559051600383018054949593949193909260ff199092169184908111156130f7576130f7613ae1565b02179055506080820151600482015560a0820151600582015560c090910151600690910155336000908152601060209081526040808320848452600d83529083208154600181810184559285529290932083546007909302019182558083015482820180546001600160a01b0319166001600160a01b039290921691909117905560028084015481840155600380850154908401805460ff90921693909260ff199092169184908111156131ad576131ad613ae1565b0217905550600482015481600401556005820154816005015560068201548160060155505050565b6040516370a0823160e01b81526001600160a01b038316600482015283907382346f167b2b938a56afdb694753c5ba7a2ab550906370a0823190602401602060405180830381865afa15801561322f573d6000803e3d6000fd5b505050506040513d601f19601f820116820180604052508101906132539190613f42565b10156040518060600160405280602b815260200161423d602b91399061328c5760405162461bcd60e51b81526004016107c29190613a6f565b506040516323b872dd60e01b81526001600160a01b0383166004820152306024820152604481018490527382346f167b2b938a56afdb694753c5ba7a2ab550906323b872dd906064016020604051808303816000875af11580156132f4573d6000803e3d6000fd5b505050506040513d601f19601f820116820180604052508101906133189190613f25565b506001600160a01b0381166000908152600c602052604081208054859290613341908490613ec5565b9091555050505050565b600780546001600160a01b038381166001600160a01b0319831681179093556040519116919082907f8be0079c531659141344cd1fd0a4f28419497f9722a3daafe3b4186f6b6457e090600090a35050565b81546000906133ee5760405162461bcd60e51b815260206004820152601b60248201527f43616e27742066696e642066726f6d20656d707479206172726179000000000060448201526064016107c2565b60005b835481101561343d578284828154811061340d5761340d613e86565b9060005260206000209060070201600001540361342b57905061068f565b8061343581614124565b9150506133f1565b50604051631910c89760e01b8152600481018390526024016107c2565b816001600160a01b0316836001600160a01b0316036134bb5760405162461bcd60e51b815260206004820152601960248201527f4552433732313a20617070726f766520746f2063616c6c65720000000000000060448201526064016107c2565b6001600160a01b03838116600081815260056020908152604080832094871680845294825291829020805460ff191686151590811790915591519182527f17307eab39ab6107e8899845ad3d59bd9653f200f220920489ca2b5937696c31910160405180910390a3505050565b6135338484846129a9565b61353f84848484613780565b6120ba5760405162461bcd60e51b81526004016107c29061413d565b6040516370a0823160e01b81526001600160a01b038316600482015283907382346f167b2b938a56afdb694753c5ba7a2ab550906370a0823190602401602060405180830381865afa1580156135b5573d6000803e3d6000fd5b505050506040513d601f19601f820116820180604052508101906135d99190613f42565b10156040518060600160405280602b815260200161423d602b9139906136125760405162461bcd60e51b81526004016107c29190613a6f565b506040516323b872dd60e01b81526001600160a01b0383166004820152306024820152604481018490527382346f167b2b938a56afdb694753c5ba7a2ab550906323b872dd906064016020604051808303816000875af115801561367a573d6000803e3d6000fd5b505050506040513d601f19601f8201168201806040525081019061369e9190613f25565b5060006136aa84612b0d565b90506136b68185613eb2565b6001600160a01b0383166000908152600c6020526040812080549091906136de908490613ec5565b9091555050306000908152600c602052604081208054839290613702908490613ec5565b909155505050505050565b60606137188261276b565b600061372f60408051602081019091526000815290565b9050600081511161374f5760405180602001604052806000815250612b2a565b8061375984613881565b60405160200161376a929190613f7d565b6040516020818303038152906040529392505050565b60006001600160a01b0384163b1561387657604051630a85bd0160e11b81526001600160a01b0385169063150b7a02906137c490339089908890889060040161418f565b6020604051808303816000875af19250505080156137ff575060408051601f3d908101601f191682019092526137fc918101906141cc565b60015b61385c573d80801561382d576040519150601f19603f3d011682016040523d82523d6000602084013e613832565b606091505b5080516000036138545760405162461bcd60e51b81526004016107c29061413d565b805181602001fd5b6001600160e01b031916630a85bd0160e11b149050612593565b506001949350505050565b6060600061388e83613914565b600101905060008167ffffffffffffffff8111156138ae576138ae613be9565b6040519080825280601f01601f1916602001820160405280156138d8576020820181803683370190505b5090508181016020015b600019016f181899199a1a9b1b9c1cb0b131b232b360811b600a86061a8153600a85049450846138e257509392505050565b60008072184f03e93ff9f4daa797ed6e38ed64bf6a1f0160401b83106139535772184f03e93ff9f4daa797ed6e38ed64bf6a1f0160401b830492506040015b6d04ee2d6d415b85acef8100000000831061397f576d04ee2d6d415b85acef8100000000830492506020015b662386f26fc10000831061399d57662386f26fc10000830492506010015b6305f5e10083106139b5576305f5e100830492506008015b61271083106139c957612710830492506004015b606483106139db576064830492506002015b600a831061068f5760010192915050565b6001600160e01b03198116811461097d57600080fd5b600060208284031215613a1457600080fd5b8135612b2a816139ec565b60005b83811015613a3a578181015183820152602001613a22565b50506000910152565b60008151808452613a5b816020860160208601613a1f565b601f01601f19169290920160200192915050565b602081526000612b2a6020830184613a43565b600060208284031215613a9457600080fd5b5035919050565b80356001600160a01b0381168114613ab257600080fd5b919050565b60008060408385031215613aca57600080fd5b613ad383613a9b565b946020939093013593505050565b634e487b7160e01b600052602160045260246000fd5b805182526020808201516001600160a01b03169083015260408082015190830152606081015160038110613b3b57634e487b7160e01b600052602160045260246000fd5b60608301526080818101519083015260a0808201519083015260c090810151910152565b6020808252825182820181905260009190848201906040850190845b81811015613ba157613b8e838551613af7565b9284019260e09290920191600101613b7b565b50909695505050505050565b600080600060608486031215613bc257600080fd5b613bcb84613a9b565b9250613bd960208501613a9b565b9150604084013590509250925092565b634e487b7160e01b600052604160045260246000fd5b600067ffffffffffffffff80841115613c1a57613c1a613be9565b604051601f8501601f19908116603f01168101908282118183101715613c4257613c42613be9565b81604052809350858152868686011115613c5b57600080fd5b858560208301376000602087830101525050509392505050565b600060208284031215613c8757600080fd5b813567ffffffffffffffff811115613c9e57600080fd5b8201601f81018413613caf57600080fd5b61259384823560208401613bff565b60008060408385031215613cd157600080fd5b50508035926020909101359150565b600060208284031215613cf257600080fd5b612b2a82613a9b565b801515811461097d57600080fd5b60008060408385031215613d1c57600080fd5b613d2583613a9b565b91506020830135613d3581613cfb565b809150509250929050565b600080600060608486031215613d5557600080fd5b505081359360208301359350604090920135919050565b60008060008060808587031215613d8257600080fd5b613d8b85613a9b565b9350613d9960208601613a9b565b925060408501359150606085013567ffffffffffffffff811115613dbc57600080fd5b8501601f81018713613dcd57600080fd5b613ddc87823560208401613bff565b91505092959194509250565b60e0810161068f8284613af7565b60008060408385031215613e0957600080fd5b613e1283613a9b565b9150613e2060208401613a9b565b90509250929050565b60008060408385031215613e3c57600080fd5b82359150613e2060208401613a9b565b600181811c90821680613e6057607f821691505b602082108103613e8057634e487b7160e01b600052602260045260246000fd5b50919050565b634e487b7160e01b600052603260045260246000fd5b634e487b7160e01b600052601160045260246000fd5b8181038181111561068f5761068f613e9c565b8082018082111561068f5761068f613e9c565b6020808252602d908201527f4552433732313a2063616c6c6572206973206e6f7420746f6b656e206f776e6560408201526c1c881bdc88185c1c1c9bdd9959609a1b606082015260800190565b600060208284031215613f3757600080fd5b8151612b2a81613cfb565b600060208284031215613f5457600080fd5b5051919050565b600082613f7857634e487b7160e01b600052601260045260246000fd5b500490565b60008351613f8f818460208801613a1f565b835190830190613fa3818360208801613a1f565b01949350505050565b60208082526025908201527f4552433732313a207472616e736665722066726f6d20696e636f72726563742060408201526437bbb732b960d91b606082015260800190565b808202811582820484141761068f5761068f613e9c565b634e487b7160e01b600052603160045260246000fd5b601f82111561086357600081815260208120601f850160051c810160208610156140455750805b601f850160051c820191505b81811015611cec57828155600101614051565b815167ffffffffffffffff81111561407e5761407e613be9565b6140928161408c8454613e4c565b8461401e565b602080601f8311600181146140c757600084156140af5750858301515b600019600386901b1c1916600185901b178555611cec565b600085815260208120601f198616915b828110156140f6578886015182559484019460019091019084016140d7565b50858210156141145787850151600019600388901b60f8161c191681555b5050505050600190811b01905550565b60006001820161413657614136613e9c565b5060010190565b60208082526032908201527f4552433732313a207472616e7366657220746f206e6f6e20455243373231526560408201527131b2b4bb32b91034b6b83632b6b2b73a32b960711b606082015260800190565b6001600160a01b03858116825284166020820152604081018390526080606082018190526000906141c290830184613a43565b9695505050505050565b6000602082840312156141de57600080fd5b8151612b2a816139ec56fe43616e6e6f74206269642062656c6f7720746865206c61746573742062696464696e672070726963654f6e6c792073656c6c6572206f722077696e6e65722063616e20636f6d706c6574652061756374696f6e5468697320636f6e7472616374206e6565647320617070726f76616c20666f72206d73672e73656e6465724f6e6c7920746f6b656e206f776e65722063616e20706572666f726d2074686973206f7065726174696f6e48696768657374206269646465722063616e6e6f7420776974686472617720626964a26469706673582212200dc51cf36dddb675b5bf3b5153d79b950300b9e72d60437b913d15cb46c1120464736f6c63430008140033",
  "linkReferences": {},
  "deployedLinkReferences": {}
}