{
  "_format": "hh-sol-artifact-1",
  "contractName": "NFTMarketplace",
  "sourceName": "contracts/NFTMarketplace.sol",
  "abi": [
    {
      "inputs": [],
      "stateMutability": "nonpayable",
      "type": "constructor"
    },
    {
      "inputs": [
        {
          "internalType": "uint256",
          "name": "tokenId",
          "type": "uint256"
        }
      ],
      "name": "ItemNotFound",
      "type": "error"
    },
    {
      "anonymous": false,
      "inputs": [
        {
          "indexed": true,
          "internalType": "address",
          "name": "owner",
          "type": "address"
        },
        {
          "indexed": true,
          "internalType": "address",
          "name": "approved",
          "type": "address"
        },
        {
          "indexed": true,
          "internalType": "uint256",
          "name": "tokenId",
          "type": "uint256"
        }
      ],
      "name": "Approval",
      "type": "event"
    },
    {
      "anonymous": false,
      "inputs": [
        {
          "indexed": true,
          "internalType": "address",
          "name": "owner",
          "type": "address"
        },
        {
          "indexed": true,
          "internalType": "address",
          "name": "operator",
          "type": "address"
        },
        {
          "indexed": false,
          "internalType": "bool",
          "name": "approved",
          "type": "bool"
        }
      ],
      "name": "ApprovalForAll",
      "type": "event"
    },
    {
      "anonymous": false,
      "inputs": [
        {
          "indexed": false,
          "internalType": "uint256",
          "name": "_fromTokenId",
          "type": "uint256"
        },
        {
          "indexed": false,
          "internalType": "uint256",
          "name": "_toTokenId",
          "type": "uint256"
        }
      ],
      "name": "BatchMetadataUpdate",
      "type": "event"
    },
    {
      "anonymous": false,
      "inputs": [
        {
          "indexed": false,
          "internalType": "uint256",
          "name": "tokenId",
          "type": "uint256"
        },
        {
          "indexed": true,
          "internalType": "address",
          "name": "from",
          "type": "address"
        },
        {
          "indexed": true,
          "internalType": "address",
          "name": "to",
          "type": "address"
        },
        {
          "indexed": false,
          "internalType": "uint256",
          "name": "price",
          "type": "uint256"
        }
      ],
      "name": "ItemSold",
      "type": "event"
    },
    {
      "anonymous": false,
      "inputs": [
        {
          "indexed": false,
          "internalType": "uint256",
          "name": "_tokenId",
          "type": "uint256"
        }
      ],
      "name": "MetadataUpdate",
      "type": "event"
    },
    {
      "anonymous": false,
      "inputs": [
        {
          "indexed": true,
          "internalType": "address",
          "name": "previousOwner",
          "type": "address"
        },
        {
          "indexed": true,
          "internalType": "address",
          "name": "newOwner",
          "type": "address"
        }
      ],
      "name": "OwnershipTransferred",
      "type": "event"
    },
    {
      "anonymous": false,
      "inputs": [
        {
          "indexed": true,
          "internalType": "address",
          "name": "from",
          "type": "address"
        },
        {
          "indexed": true,
          "internalType": "address",
          "name": "to",
          "type": "address"
        },
        {
          "indexed": true,
          "internalType": "uint256",
          "name": "tokenId",
          "type": "uint256"
        }
      ],
      "name": "Transfer",
      "type": "event"
    },
    {
      "inputs": [
        {
          "internalType": "address",
          "name": "to",
          "type": "address"
        },
        {
          "internalType": "uint256",
          "name": "tokenId",
          "type": "uint256"
        }
      ],
      "name": "approve",
      "outputs": [],
      "stateMutability": "nonpayable",
      "type": "function"
    },
    {
      "inputs": [
        {
          "internalType": "address",
          "name": "owner",
          "type": "address"
        }
      ],
      "name": "balanceOf",
      "outputs": [
        {
          "internalType": "uint256",
          "name": "",
          "type": "uint256"
        }
      ],
      "stateMutability": "view",
      "type": "function"
    },
    {
      "inputs": [
        {
          "internalType": "uint256",
          "name": "tokenId",
          "type": "uint256"
        }
      ],
      "name": "createMarketSale",
      "outputs": [],
      "stateMutability": "nonpayable",
      "type": "function"
    },
    {
      "inputs": [
        {
          "internalType": "string",
          "name": "tokenURI",
          "type": "string"
        }
      ],
      "name": "createToken",
      "outputs": [
        {
          "internalType": "uint256",
          "name": "",
          "type": "uint256"
        }
      ],
      "stateMutability": "nonpayable",
      "type": "function"
    },
    {
      "inputs": [],
      "name": "fetchMarketItems",
      "outputs": [
        {
          "components": [
            {
              "internalType": "uint256",
              "name": "tokenId",
              "type": "uint256"
            },
            {
              "internalType": "address",
              "name": "owner",
              "type": "address"
            },
            {
              "internalType": "uint256",
              "name": "price",
              "type": "uint256"
            },
            {
              "internalType": "bool",
              "name": "onSale",
              "type": "bool"
            }
          ],
          "internalType": "struct MarketItem[]",
          "name": "",
          "type": "tuple[]"
        }
      ],
      "stateMutability": "view",
      "type": "function"
    },
    {
      "inputs": [],
      "name": "fetchMyNFTs",
      "outputs": [
        {
          "components": [
            {
              "internalType": "uint256",
              "name": "tokenId",
              "type": "uint256"
            },
            {
              "internalType": "address",
              "name": "owner",
              "type": "address"
            },
            {
              "internalType": "uint256",
              "name": "price",
              "type": "uint256"
            },
            {
              "internalType": "bool",
              "name": "onSale",
              "type": "bool"
            }
          ],
          "internalType": "struct MarketItem[]",
          "name": "",
          "type": "tuple[]"
        }
      ],
      "stateMutability": "view",
      "type": "function"
    },
    {
      "inputs": [
        {
          "internalType": "uint256",
          "name": "tokenId",
          "type": "uint256"
        }
      ],
      "name": "getApproved",
      "outputs": [
        {
          "internalType": "address",
          "name": "",
          "type": "address"
        }
      ],
      "stateMutability": "view",
      "type": "function"
    },
    {
      "inputs": [],
      "name": "getComission",
      "outputs": [
        {
          "internalType": "uint256",
          "name": "",
          "type": "uint256"
        }
      ],
      "stateMutability": "view",
      "type": "function"
    },
    {
      "inputs": [
        {
          "internalType": "address",
          "name": "owner",
          "type": "address"
        },
        {
          "internalType": "address",
          "name": "operator",
          "type": "address"
        }
      ],
      "name": "isApprovedForAll",
      "outputs": [
        {
          "internalType": "bool",
          "name": "",
          "type": "bool"
        }
      ],
      "stateMutability": "view",
      "type": "function"
    },
    {
      "inputs": [
        {
          "internalType": "uint256",
          "name": "",
          "type": "uint256"
        }
      ],
      "name": "itemsForSaleIndex",
      "outputs": [
        {
          "internalType": "uint256",
          "name": "",
          "type": "uint256"
        }
      ],
      "stateMutability": "view",
      "type": "function"
    },
    {
      "inputs": [
        {
          "internalType": "uint256",
          "name": "tokenId",
          "type": "uint256"
        },
        {
          "internalType": "uint256",
          "name": "price",
          "type": "uint256"
        }
      ],
      "name": "listItem",
      "outputs": [],
      "stateMutability": "nonpayable",
      "type": "function"
    },
    {
      "inputs": [],
      "name": "name",
      "outputs": [
        {
          "internalType": "string",
          "name": "",
          "type": "string"
        }
      ],
      "stateMutability": "view",
      "type": "function"
    },
    {
      "inputs": [],
      "name": "owner",
      "outputs": [
        {
          "internalType": "address",
          "name": "",
          "type": "address"
        }
      ],
      "stateMutability": "view",
      "type": "function"
    },
    {
      "inputs": [
        {
          "internalType": "uint256",
          "name": "tokenId",
          "type": "uint256"
        }
      ],
      "name": "ownerOf",
      "outputs": [
        {
          "internalType": "address",
          "name": "",
          "type": "address"
        }
      ],
      "stateMutability": "view",
      "type": "function"
    },
    {
      "inputs": [],
      "name": "renounceOwnership",
      "outputs": [],
      "stateMutability": "nonpayable",
      "type": "function"
    },
    {
      "inputs": [
        {
          "internalType": "address",
          "name": "from",
          "type": "address"
        },
        {
          "internalType": "address",
          "name": "to",
          "type": "address"
        },
        {
          "internalType": "uint256",
          "name": "tokenId",
          "type": "uint256"
        }
      ],
      "name": "safeTransferFrom",
      "outputs": [],
      "stateMutability": "nonpayable",
      "type": "function"
    },
    {
      "inputs": [
        {
          "internalType": "address",
          "name": "from",
          "type": "address"
        },
        {
          "internalType": "address",
          "name": "to",
          "type": "address"
        },
        {
          "internalType": "uint256",
          "name": "tokenId",
          "type": "uint256"
        },
        {
          "internalType": "bytes",
          "name": "data",
          "type": "bytes"
        }
      ],
      "name": "safeTransferFrom",
      "outputs": [],
      "stateMutability": "nonpayable",
      "type": "function"
    },
    {
      "inputs": [
        {
          "internalType": "address",
          "name": "operator",
          "type": "address"
        },
        {
          "internalType": "bool",
          "name": "approved",
          "type": "bool"
        }
      ],
      "name": "setApprovalForAll",
      "outputs": [],
      "stateMutability": "nonpayable",
      "type": "function"
    },
    {
      "inputs": [
        {
          "internalType": "bytes4",
          "name": "interfaceId",
          "type": "bytes4"
        }
      ],
      "name": "supportsInterface",
      "outputs": [
        {
          "internalType": "bool",
          "name": "",
          "type": "bool"
        }
      ],
      "stateMutability": "view",
      "type": "function"
    },
    {
      "inputs": [],
      "name": "symbol",
      "outputs": [
        {
          "internalType": "string",
          "name": "",
          "type": "string"
        }
      ],
      "stateMutability": "view",
      "type": "function"
    },
    {
      "inputs": [
        {
          "internalType": "uint256",
          "name": "tokenId",
          "type": "uint256"
        }
      ],
      "name": "tokenURI",
      "outputs": [
        {
          "internalType": "string",
          "name": "",
          "type": "string"
        }
      ],
      "stateMutability": "view",
      "type": "function"
    },
    {
      "inputs": [
        {
          "internalType": "address",
          "name": "from",
          "type": "address"
        },
        {
          "internalType": "address",
          "name": "to",
          "type": "address"
        },
        {
          "internalType": "uint256",
          "name": "tokenId",
          "type": "uint256"
        }
      ],
      "name": "transferFrom",
      "outputs": [],
      "stateMutability": "nonpayable",
      "type": "function"
    },
    {
      "inputs": [
        {
          "internalType": "address",
          "name": "newOwner",
          "type": "address"
        }
      ],
      "name": "transferOwnership",
      "outputs": [],
      "stateMutability": "nonpayable",
      "type": "function"
    },
    {
      "inputs": [
        {
          "internalType": "uint256",
          "name": "tokenId",
          "type": "uint256"
        }
      ],
      "name": "unListItem",
      "outputs": [],
      "stateMutability": "nonpayable",
      "type": "function"
    },
    {
      "inputs": [
        {
          "internalType": "uint256",
          "name": "comission",
          "type": "uint256"
        }
      ],
      "name": "updateComission",
      "outputs": [],
      "stateMutability": "nonpayable",
      "type": "function"
    },
    {
      "inputs": [],
      "name": "withdraw",
      "outputs": [],
      "stateMutability": "nonpayable",
      "type": "function"
    }
  ],
  "bytecode": "0x608060405260016009553480156200001657600080fd5b506040518060400160405280600f81526020017f574542332044414f20546f6b656e7300000000000000000000000000000000008152506040518060400160405280600481526020017f5744414f00000000000000000000000000000000000000000000000000000000815250816000908162000094919062000417565b508060019081620000a6919062000417565b505050620000c9620000bd620000cf60201b60201c565b620000d760201b60201c565b620004fe565b600033905090565b6000600760009054906101000a900473ffffffffffffffffffffffffffffffffffffffff16905081600760006101000a81548173ffffffffffffffffffffffffffffffffffffffff021916908373ffffffffffffffffffffffffffffffffffffffff1602179055508173ffffffffffffffffffffffffffffffffffffffff168173ffffffffffffffffffffffffffffffffffffffff167f8be0079c531659141344cd1fd0a4f28419497f9722a3daafe3b4186f6b6457e060405160405180910390a35050565b600081519050919050565b7f4e487b7100000000000000000000000000000000000000000000000000000000600052604160045260246000fd5b7f4e487b7100000000000000000000000000000000000000000000000000000000600052602260045260246000fd5b600060028204905060018216806200021f57607f821691505b602082108103620002355762000234620001d7565b5b50919050565b60008190508160005260206000209050919050565b60006020601f8301049050919050565b600082821b905092915050565b6000600883026200029f7fffffffffffffffffffffffffffffffffffffffffffffffffffffffffffffffff8262000260565b620002ab868362000260565b95508019841693508086168417925050509392505050565b6000819050919050565b6000819050919050565b6000620002f8620002f2620002ec84620002c3565b620002cd565b620002c3565b9050919050565b6000819050919050565b6200031483620002d7565b6200032c6200032382620002ff565b8484546200026d565b825550505050565b600090565b6200034362000334565b6200035081848462000309565b505050565b5b8181101562000378576200036c60008262000339565b60018101905062000356565b5050565b601f821115620003c75762000391816200023b565b6200039c8462000250565b81016020851015620003ac578190505b620003c4620003bb8562000250565b83018262000355565b50505b505050565b600082821c905092915050565b6000620003ec60001984600802620003cc565b1980831691505092915050565b6000620004078383620003d9565b9150826002028217905092915050565b62000422826200019d565b67ffffffffffffffff8111156200043e576200043d620001a8565b5b6200044a825462000206565b620004578282856200037c565b600060209050601f8311600181146200048f57600084156200047a578287015190505b620004868582620003f9565b865550620004f6565b601f1984166200049f866200023b565b60005b82811015620004c957848901518255600182019150602085019450602081019050620004a2565b86831015620004e95784890151620004e5601f891682620003d9565b8355505b6001600288020188555050505b505050505050565b614f1c806200050e6000396000f3fe608060405234801561001057600080fd5b506004361061018e5760003560e01c806370a08231116100de578063a7bc77c611610097578063c87b56dd11610071578063c87b56dd14610459578063dd6d3ca714610489578063e985e9c5146104a7578063f2fde38b146104d75761018e565b8063a7bc77c614610405578063b88d4fde14610421578063be9af5361461043d5761018e565b806370a0823114610357578063715018a614610387578063883efa67146103915780638da5cb5b146103ad57806395d89b41146103cb578063a22cb465146103e95761018e565b806323b872dd1161014b57806342842e0e1161012557806342842e0e146102ab57806345576f94146102c757806354c914b4146102f75780636352211e146103275761018e565b806323b872dd146102695780632e89b77a146102855780633ccfd60b146102a15761018e565b806301ffc9a71461019357806306fdde03146101c3578063081812fc146101e1578063095ea7b3146102115780630f08efe01461022d578063202e37401461024b575b600080fd5b6101ad60048036038101906101a8919061348f565b6104f3565b6040516101ba91906134d7565b60405180910390f35b6101cb610554565b6040516101d89190613582565b60405180910390f35b6101fb60048036038101906101f691906135da565b6105e6565b6040516102089190613648565b60405180910390f35b61022b6004803603810190610226919061368f565b61062c565b005b610235610743565b6040516102429190613800565b60405180910390f35b610253610827565b6040516102609190613800565b60405180910390f35b610283600480360381019061027e9190613822565b610948565b005b61029f600480360381019061029a91906135da565b6109a8565b005b6102a96109ba565b005b6102c560048036038101906102c09190613822565b6109cd565b005b6102e160048036038101906102dc91906139aa565b6109ed565b6040516102ee9190613a02565b60405180910390f35b610311600480360381019061030c91906135da565b610a2c565b60405161031e9190613a02565b60405180910390f35b610341600480360381019061033c91906135da565b610a44565b60405161034e9190613648565b60405180910390f35b610371600480360381019061036c9190613a1d565b610aca565b60405161037e9190613a02565b60405180910390f35b61038f610b81565b005b6103ab60048036038101906103a69190613a4a565b610b95565b005b6103b5610f20565b6040516103c29190613648565b60405180910390f35b6103d3610f4a565b6040516103e09190613582565b60405180910390f35b61040360048036038101906103fe9190613ab6565b610fdc565b005b61041f600480360381019061041a91906135da565b610ff2565b005b61043b60048036038101906104369190613b97565b6112f5565b005b610457600480360381019061045291906135da565b611357565b005b610473600480360381019061046e91906135da565b61183d565b6040516104809190613582565b60405180910390f35b61049161194f565b60405161049e9190613a02565b60405180910390f35b6104c160048036038101906104bc9190613c1a565b611959565b6040516104ce91906134d7565b60405180910390f35b6104f160048036038101906104ec9190613a1d565b6119ed565b005b6000634906490660e01b7bffffffffffffffffffffffffffffffffffffffffffffffffffffffff1916827bffffffffffffffffffffffffffffffffffffffffffffffffffffffff1916148061054d575061054c82611a70565b5b9050919050565b60606000805461056390613c89565b80601f016020809104026020016040519081016040528092919081815260200182805461058f90613c89565b80156105dc5780601f106105b1576101008083540402835291602001916105dc565b820191906000526020600020905b8154815290600101906020018083116105bf57829003601f168201915b5050505050905090565b60006105f182611b52565b6004600083815260200190815260200160002060009054906101000a900473ffffffffffffffffffffffffffffffffffffffff169050919050565b600061063782610a44565b90508073ffffffffffffffffffffffffffffffffffffffff168373ffffffffffffffffffffffffffffffffffffffff16036106a7576040517f08c379a000000000000000000000000000000000000000000000000000000000815260040161069e90613d2c565b60405180910390fd5b8073ffffffffffffffffffffffffffffffffffffffff166106c6611b9d565b73ffffffffffffffffffffffffffffffffffffffff1614806106f557506106f4816106ef611b9d565b611959565b5b610734576040517f08c379a000000000000000000000000000000000000000000000000000000000815260040161072b90613dbe565b60405180910390fd5b61073e8383611ba5565b505050565b6060600d805480602002602001604051908101604052809291908181526020016000905b8282101561081e5783829060005260206000209060040201604051806080016040529081600082015481526020016001820160009054906101000a900473ffffffffffffffffffffffffffffffffffffffff1673ffffffffffffffffffffffffffffffffffffffff1673ffffffffffffffffffffffffffffffffffffffff168152602001600282015481526020016003820160009054906101000a900460ff16151515158152505081526020019060010190610767565b50505050905090565b6060600c60003373ffffffffffffffffffffffffffffffffffffffff1673ffffffffffffffffffffffffffffffffffffffff168152602001908152602001600020805480602002602001604051908101604052809291908181526020016000905b8282101561093f5783829060005260206000209060040201604051806080016040529081600082015481526020016001820160009054906101000a900473ffffffffffffffffffffffffffffffffffffffff1673ffffffffffffffffffffffffffffffffffffffff1673ffffffffffffffffffffffffffffffffffffffff168152602001600282015481526020016003820160009054906101000a900460ff16151515158152505081526020019060010190610888565b50505050905090565b610959610953611b9d565b82611c5e565b610998576040517f08c379a000000000000000000000000000000000000000000000000000000000815260040161098f90613e50565b60405180910390fd5b6109a3838383611cf3565b505050565b6109b0611fec565b8060098190555050565b6109c2611fec565b6109cb3061206a565b565b6109e8838383604051806020016040528060008152506112f5565b505050565b6000806109fa60086120b6565b9050610a0660086120c4565b610a1033826120da565b610a1a81846122f7565b610a238161239b565b80915050919050565b600e6020528060005260406000206000915090505481565b600080610a508361258f565b9050600073ffffffffffffffffffffffffffffffffffffffff168173ffffffffffffffffffffffffffffffffffffffff1603610ac1576040517f08c379a0000000000000000000000000000000000000000000000000000000008152600401610ab890613ebc565b60405180910390fd5b80915050919050565b60008073ffffffffffffffffffffffffffffffffffffffff168273ffffffffffffffffffffffffffffffffffffffff1603610b3a576040517f08c379a0000000000000000000000000000000000000000000000000000000008152600401610b3190613f4e565b60405180910390fd5b600360008373ffffffffffffffffffffffffffffffffffffffff1673ffffffffffffffffffffffffffffffffffffffff168152602001908152602001600020549050919050565b610b89611fec565b610b9360006125cc565b565b3373ffffffffffffffffffffffffffffffffffffffff16610bb583610a44565b73ffffffffffffffffffffffffffffffffffffffff1614610c0b576040517f08c379a0000000000000000000000000000000000000000000000000000000008152600401610c0290613fe0565b60405180910390fd5b60008111610c4e576040517f08c379a0000000000000000000000000000000000000000000000000000000008152600401610c459061404c565b60405180910390fd5b6001600b600084815260200190815260200160002060030160006101000a81548160ff02191690831515021790555080600b600084815260200190815260200160002060020181905550600d600b60008481526020019081526020016000209080600181540180825580915050600190039060005260206000209060040201600090919091909150600082015481600001556001820160009054906101000a900473ffffffffffffffffffffffffffffffffffffffff168160010160006101000a81548173ffffffffffffffffffffffffffffffffffffffff021916908373ffffffffffffffffffffffffffffffffffffffff160217905550600282015481600201556003820160009054906101000a900460ff168160030160006101000a81548160ff02191690831515021790555050506001600d80549050610d92919061409b565b600e6000848152602001908152602001600020819055506000610dfc83600c60003373ffffffffffffffffffffffffffffffffffffffff1673ffffffffffffffffffffffffffffffffffffffff16815260200190815260200160002061269290919063ffffffff16565b9050600b6000848152602001908152602001600020600c60003373ffffffffffffffffffffffffffffffffffffffff1673ffffffffffffffffffffffffffffffffffffffff1681526020019081526020016000208281548110610e6257610e616140cf565b5b9060005260206000209060040201600082015481600001556001820160009054906101000a900473ffffffffffffffffffffffffffffffffffffffff168160010160006101000a81548173ffffffffffffffffffffffffffffffffffffffff021916908373ffffffffffffffffffffffffffffffffffffffff160217905550600282015481600201556003820160009054906101000a900460ff168160030160006101000a81548160ff021916908315150217905550905050505050565b6000600760009054906101000a900473ffffffffffffffffffffffffffffffffffffffff16905090565b606060018054610f5990613c89565b80601f0160208091040260200160405190810160405280929190818152602001828054610f8590613c89565b8015610fd25780601f10610fa757610100808354040283529160200191610fd2565b820191906000526020600020905b815481529060010190602001808311610fb557829003601f168201915b5050505050905090565b610fee610fe7611b9d565b8383612774565b5050565b3373ffffffffffffffffffffffffffffffffffffffff1661101282610a44565b73ffffffffffffffffffffffffffffffffffffffff1614611068576040517f08c379a000000000000000000000000000000000000000000000000000000000815260040161105f90613fe0565b60405180910390fd5b6000600b600083815260200190815260200160002060030160006101000a81548160ff0219169083151502179055506000600b6000838152602001908152602001600020600201819055506000600e60008381526020019081526020016000205490506000600d82815481106110e1576110e06140cf565b5b906000526020600020906004020160010160009054906101000a900473ffffffffffffffffffffffffffffffffffffffff169050600061116884600c60008573ffffffffffffffffffffffffffffffffffffffff1673ffffffffffffffffffffffffffffffffffffffff16815260200190815260200160002061269290919063ffffffff16565b9050600b6000858152602001908152602001600020600c60008473ffffffffffffffffffffffffffffffffffffffff1673ffffffffffffffffffffffffffffffffffffffff16815260200190815260200160002082815481106111ce576111cd6140cf565b5b9060005260206000209060040201600082015481600001556001820160009054906101000a900473ffffffffffffffffffffffffffffffffffffffff168160010160006101000a81548173ffffffffffffffffffffffffffffffffffffffff021916908373ffffffffffffffffffffffffffffffffffffffff160217905550600282015481600201556003820160009054906101000a900460ff168160030160006101000a81548160ff0219169083151502179055509050506000600d6001600d8054905061129d919061409b565b815481106112ae576112ad6140cf565b5b90600052602060002090600402016000015490506112d684600d6128e090919063ffffffff16565b83600e6000838152602001908152602001600020819055505050505050565b611306611300611b9d565b83611c5e565b611345576040517f08c379a000000000000000000000000000000000000000000000000000000000815260040161133c90613e50565b60405180910390fd5b61135184848484612ae3565b50505050565b6000600e6000838152602001908152602001600020549050600d8181548110611383576113826140cf565b5b90600052602060002090600402016000015482146113d6576040517f08c379a00000000000000000000000000000000000000000000000000000000081526004016113cd9061414a565b60405180910390fd5b6000600d82815481106113ec576113eb6140cf565b5b90600052602060002090600402016002015490506000600d8381548110611416576114156140cf565b5b906000526020600020906004020160010160009054906101000a900473ffffffffffffffffffffffffffffffffffffffff169050817382346f167b2b938a56afdb694753c5ba7a2ab55073ffffffffffffffffffffffffffffffffffffffff1663dd62ed3e33306040518363ffffffff1660e01b815260040161149a92919061416a565b602060405180830381865afa1580156114b7573d6000803e3d6000fd5b505050506040513d601f19601f820116820180604052508101906114db91906141a8565b101561151c576040517f08c379a000000000000000000000000000000000000000000000000000000000815260040161151390614247565b60405180910390fd5b611527823383612b3f565b611532813386611cf3565b600061153d83612d6e565b9050611554818461154e919061409b565b83612d96565b33600b600087815260200190815260200160002060010160006101000a81548173ffffffffffffffffffffffffffffffffffffffff021916908373ffffffffffffffffffffffffffffffffffffffff1602179055506000600b600087815260200190815260200160002060030160006101000a81548160ff021916908315150217905550600c60003373ffffffffffffffffffffffffffffffffffffffff1673ffffffffffffffffffffffffffffffffffffffff168152602001908152602001600020600b60008781526020019081526020016000209080600181540180825580915050600190039060005260206000209060040201600090919091909150600082015481600001556001820160009054906101000a900473ffffffffffffffffffffffffffffffffffffffff168160010160006101000a81548173ffffffffffffffffffffffffffffffffffffffff021916908373ffffffffffffffffffffffffffffffffffffffff160217905550600282015481600201556003820160009054906101000a900460ff168160030160006101000a81548160ff021916908315150217905550505061174e85600c60008573ffffffffffffffffffffffffffffffffffffffff1673ffffffffffffffffffffffffffffffffffffffff168152602001908152602001600020612f0590919063ffffffff16565b6000600e60008781526020019081526020016000205490506000600d6001600d8054905061177c919061409b565b8154811061178d5761178c6140cf565b5b90600052602060002090600402016000015490506117b582600d6128e090919063ffffffff16565b81600e6000838152602001908152602001600020819055503373ffffffffffffffffffffffffffffffffffffffff168473ffffffffffffffffffffffffffffffffffffffff167f04ddd54c6b746e69ba87f862311f7670bd1d7276846778ac81cd38747b27a746898860405161182c929190614267565b60405180910390a350505050505050565b606061184882611b52565b600060066000848152602001908152602001600020805461186890613c89565b80601f016020809104026020016040519081016040528092919081815260200182805461189490613c89565b80156118e15780601f106118b6576101008083540402835291602001916118e1565b820191906000526020600020905b8154815290600101906020018083116118c457829003601f168201915b5050505050905060006118f2612f22565b9050600081510361190757819250505061194a565b60008251111561193c5780826040516020016119249291906142cc565b6040516020818303038152906040529250505061194a565b61194584612f39565b925050505b919050565b6000600954905090565b6000600560008473ffffffffffffffffffffffffffffffffffffffff1673ffffffffffffffffffffffffffffffffffffffff16815260200190815260200160002060008373ffffffffffffffffffffffffffffffffffffffff1673ffffffffffffffffffffffffffffffffffffffff16815260200190815260200160002060009054906101000a900460ff16905092915050565b6119f5611fec565b600073ffffffffffffffffffffffffffffffffffffffff168173ffffffffffffffffffffffffffffffffffffffff1603611a64576040517f08c379a0000000000000000000000000000000000000000000000000000000008152600401611a5b90614362565b60405180910390fd5b611a6d816125cc565b50565b60007f80ac58cd000000000000000000000000000000000000000000000000000000007bffffffffffffffffffffffffffffffffffffffffffffffffffffffff1916827bffffffffffffffffffffffffffffffffffffffffffffffffffffffff19161480611b3b57507f5b5e139f000000000000000000000000000000000000000000000000000000007bffffffffffffffffffffffffffffffffffffffffffffffffffffffff1916827bffffffffffffffffffffffffffffffffffffffffffffffffffffffff1916145b80611b4b5750611b4a82612fa1565b5b9050919050565b611b5b8161300b565b611b9a576040517f08c379a0000000000000000000000000000000000000000000000000000000008152600401611b9190613ebc565b60405180910390fd5b50565b600033905090565b816004600083815260200190815260200160002060006101000a81548173ffffffffffffffffffffffffffffffffffffffff021916908373ffffffffffffffffffffffffffffffffffffffff160217905550808273ffffffffffffffffffffffffffffffffffffffff16611c1883610a44565b73ffffffffffffffffffffffffffffffffffffffff167f8c5be1e5ebec7d5bd14f71427d1e84f3dd0314c0f7b2291e5b200ac8c7c3b92560405160405180910390a45050565b600080611c6a83610a44565b90508073ffffffffffffffffffffffffffffffffffffffff168473ffffffffffffffffffffffffffffffffffffffff161480611cac5750611cab8185611959565b5b80611cea57508373ffffffffffffffffffffffffffffffffffffffff16611cd2846105e6565b73ffffffffffffffffffffffffffffffffffffffff16145b91505092915050565b8273ffffffffffffffffffffffffffffffffffffffff16611d1382610a44565b73ffffffffffffffffffffffffffffffffffffffff1614611d69576040517f08c379a0000000000000000000000000000000000000000000000000000000008152600401611d60906143f4565b60405180910390fd5b600073ffffffffffffffffffffffffffffffffffffffff168273ffffffffffffffffffffffffffffffffffffffff1603611dd8576040517f08c379a0000000000000000000000000000000000000000000000000000000008152600401611dcf90614486565b60405180910390fd5b611de5838383600161304c565b8273ffffffffffffffffffffffffffffffffffffffff16611e0582610a44565b73ffffffffffffffffffffffffffffffffffffffff1614611e5b576040517f08c379a0000000000000000000000000000000000000000000000000000000008152600401611e52906143f4565b60405180910390fd5b6004600082815260200190815260200160002060006101000a81549073ffffffffffffffffffffffffffffffffffffffff02191690556001600360008573ffffffffffffffffffffffffffffffffffffffff1673ffffffffffffffffffffffffffffffffffffffff168152602001908152602001600020600082825403925050819055506001600360008473ffffffffffffffffffffffffffffffffffffffff1673ffffffffffffffffffffffffffffffffffffffff16815260200190815260200160002060008282540192505081905550816002600083815260200190815260200160002060006101000a81548173ffffffffffffffffffffffffffffffffffffffff021916908373ffffffffffffffffffffffffffffffffffffffff160217905550808273ffffffffffffffffffffffffffffffffffffffff168473ffffffffffffffffffffffffffffffffffffffff167fddf252ad1be2c89b69c2b068fc378daa952ba7f163c4a11628f55a4df523b3ef60405160405180910390a4611fe78383836001613052565b505050565b611ff4611b9d565b73ffffffffffffffffffffffffffffffffffffffff16612012610f20565b73ffffffffffffffffffffffffffffffffffffffff1614612068576040517f08c379a000000000000000000000000000000000000000000000000000000000815260040161205f906144f2565b60405180910390fd5b565b6120b3600a60008373ffffffffffffffffffffffffffffffffffffffff1673ffffffffffffffffffffffffffffffffffffffff1681526020019081526020016000205482612d96565b50565b600081600001549050919050565b6001816000016000828254019250508190555050565b600073ffffffffffffffffffffffffffffffffffffffff168273ffffffffffffffffffffffffffffffffffffffff1603612149576040517f08c379a00000000000000000000000000000000000000000000000000000000081526004016121409061455e565b60405180910390fd5b6121528161300b565b15612192576040517f08c379a0000000000000000000000000000000000000000000000000000000008152600401612189906145ca565b60405180910390fd5b6121a060008383600161304c565b6121a98161300b565b156121e9576040517f08c379a00000000000000000000000000000000000000000000000000000000081526004016121e0906145ca565b60405180910390fd5b6001600360008473ffffffffffffffffffffffffffffffffffffffff1673ffffffffffffffffffffffffffffffffffffffff16815260200190815260200160002060008282540192505081905550816002600083815260200190815260200160002060006101000a81548173ffffffffffffffffffffffffffffffffffffffff021916908373ffffffffffffffffffffffffffffffffffffffff160217905550808273ffffffffffffffffffffffffffffffffffffffff16600073ffffffffffffffffffffffffffffffffffffffff167fddf252ad1be2c89b69c2b068fc378daa952ba7f163c4a11628f55a4df523b3ef60405160405180910390a46122f3600083836001613052565b5050565b6123008261300b565b61233f576040517f08c379a00000000000000000000000000000000000000000000000000000000081526004016123369061465c565b60405180910390fd5b8060066000848152602001908152602001600020908161235f9190614828565b507ff8e1a15aba9398e019f0b49df1a4fde98ee17ae345cb5f6b5e2c27f5033e8ce78260405161238f9190613a02565b60405180910390a15050565b60405180608001604052808281526020013373ffffffffffffffffffffffffffffffffffffffff1681526020016000815260200160001515815250600b60008381526020019081526020016000206000820151816000015560208201518160010160006101000a81548173ffffffffffffffffffffffffffffffffffffffff021916908373ffffffffffffffffffffffffffffffffffffffff1602179055506040820151816002015560608201518160030160006101000a81548160ff021916908315150217905550905050600c60003373ffffffffffffffffffffffffffffffffffffffff1673ffffffffffffffffffffffffffffffffffffffff168152602001908152602001600020600b60008381526020019081526020016000209080600181540180825580915050600190039060005260206000209060040201600090919091909150600082015481600001556001820160009054906101000a900473ffffffffffffffffffffffffffffffffffffffff168160010160006101000a81548173ffffffffffffffffffffffffffffffffffffffff021916908373ffffffffffffffffffffffffffffffffffffffff160217905550600282015481600201556003820160009054906101000a900460ff168160030160006101000a81548160ff021916908315150217905550505050565b60006002600083815260200190815260200160002060009054906101000a900473ffffffffffffffffffffffffffffffffffffffff169050919050565b6000600760009054906101000a900473ffffffffffffffffffffffffffffffffffffffff16905081600760006101000a81548173ffffffffffffffffffffffffffffffffffffffff021916908373ffffffffffffffffffffffffffffffffffffffff1602179055508173ffffffffffffffffffffffffffffffffffffffff168173ffffffffffffffffffffffffffffffffffffffff167f8be0079c531659141344cd1fd0a4f28419497f9722a3daafe3b4186f6b6457e060405160405180910390a35050565b6000808380549050116126da576040517f08c379a00000000000000000000000000000000000000000000000000000000081526004016126d190614946565b60405180910390fd5b60005b838054905081101561273057828482815481106126fd576126fc6140cf565b5b9060005260206000209060040201600001540361271d578091505061276e565b808061272890614966565b9150506126dd565b50816040517f1910c8970000000000000000000000000000000000000000000000000000000081526004016127659190613a02565b60405180910390fd5b92915050565b8173ffffffffffffffffffffffffffffffffffffffff168373ffffffffffffffffffffffffffffffffffffffff16036127e2576040517f08c379a00000000000000000000000000000000000000000000000000000000081526004016127d9906149fa565b60405180910390fd5b80600560008573ffffffffffffffffffffffffffffffffffffffff1673ffffffffffffffffffffffffffffffffffffffff16815260200190815260200160002060008473ffffffffffffffffffffffffffffffffffffffff1673ffffffffffffffffffffffffffffffffffffffff16815260200190815260200160002060006101000a81548160ff0219169083151502179055508173ffffffffffffffffffffffffffffffffffffffff168373ffffffffffffffffffffffffffffffffffffffff167f17307eab39ab6107e8899845ad3d59bd9653f200f220920489ca2b5937696c31836040516128d391906134d7565b60405180910390a3505050565b6000828054905011612927576040517f08c379a000000000000000000000000000000000000000000000000000000000815260040161291e90614a66565b60405180910390fd5b8180549050811061296d576040517f08c379a000000000000000000000000000000000000000000000000000000000815260040161296490614ad2565b60405180910390fd5b816001838054905061297f919061409b565b815481106129905761298f6140cf565b5b90600052602060002090600402018282815481106129b1576129b06140cf565b5b9060005260206000209060040201600082015481600001556001820160009054906101000a900473ffffffffffffffffffffffffffffffffffffffff168160010160006101000a81548173ffffffffffffffffffffffffffffffffffffffff021916908373ffffffffffffffffffffffffffffffffffffffff160217905550600282015481600201556003820160009054906101000a900460ff168160030160006101000a81548160ff02191690831515021790555090505081805480612a7b57612a7a614af2565b5b60019003818190600052602060002090600402016000808201600090556001820160006101000a81549073ffffffffffffffffffffffffffffffffffffffff021916905560028201600090556003820160006101000a81549060ff0219169055505090555050565b612aee848484611cf3565b612afa84848484613058565b612b39576040517f08c379a0000000000000000000000000000000000000000000000000000000008152600401612b3090614b93565b60405180910390fd5b50505050565b827382346f167b2b938a56afdb694753c5ba7a2ab55073ffffffffffffffffffffffffffffffffffffffff166370a08231846040518263ffffffff1660e01b8152600401612b8d9190613648565b602060405180830381865afa158015612baa573d6000803e3d6000fd5b505050506040513d601f19601f82011682018060405250810190612bce91906141a8565b1015612c0f576040517f08c379a0000000000000000000000000000000000000000000000000000000008152600401612c0690614bff565b60405180910390fd5b7382346f167b2b938a56afdb694753c5ba7a2ab55073ffffffffffffffffffffffffffffffffffffffff166323b872dd8330866040518463ffffffff1660e01b8152600401612c6093929190614c1f565b6020604051808303816000875af1158015612c7f573d6000803e3d6000fd5b505050506040513d601f19601f82011682018060405250810190612ca39190614c6b565b506000612caf84612d6e565b90508084612cbd919061409b565b600a60008473ffffffffffffffffffffffffffffffffffffffff1673ffffffffffffffffffffffffffffffffffffffff1681526020019081526020016000206000828254612d0b9190614c98565b9250508190555080600a60003073ffffffffffffffffffffffffffffffffffffffff1673ffffffffffffffffffffffffffffffffffffffff1681526020019081526020016000206000828254612d619190614c98565b9250508190555050505050565b600080606460095484612d819190614ccc565b612d8b9190614d3d565b905080915050919050565b81600a60008373ffffffffffffffffffffffffffffffffffffffff1673ffffffffffffffffffffffffffffffffffffffff168152602001908152602001600020541015612e18576040517f08c379a0000000000000000000000000000000000000000000000000000000008152600401612e0f90614dba565b60405180910390fd5b7382346f167b2b938a56afdb694753c5ba7a2ab55073ffffffffffffffffffffffffffffffffffffffff1663a9059cbb82846040518363ffffffff1660e01b8152600401612e67929190614dda565b6020604051808303816000875af1158015612e86573d6000803e3d6000fd5b505050506040513d601f19601f82011682018060405250810190612eaa9190614c6b565b5081600a60008373ffffffffffffffffffffffffffffffffffffffff1673ffffffffffffffffffffffffffffffffffffffff1681526020019081526020016000206000828254612efa919061409b565b925050819055505050565b6000612f118383612692565b9050612f1d83826128e0565b505050565b606060405180602001604052806000815250905090565b6060612f4482611b52565b6000612f4e612f22565b90506000815111612f6e5760405180602001604052806000815250612f99565b80612f78846131df565b604051602001612f899291906142cc565b6040516020818303038152906040525b915050919050565b60007f01ffc9a7000000000000000000000000000000000000000000000000000000007bffffffffffffffffffffffffffffffffffffffffffffffffffffffff1916827bffffffffffffffffffffffffffffffffffffffffffffffffffffffff1916149050919050565b60008073ffffffffffffffffffffffffffffffffffffffff1661302d8361258f565b73ffffffffffffffffffffffffffffffffffffffff1614159050919050565b50505050565b50505050565b60006130798473ffffffffffffffffffffffffffffffffffffffff166132ad565b156131d2578373ffffffffffffffffffffffffffffffffffffffff1663150b7a026130a2611b9d565b8786866040518563ffffffff1660e01b81526004016130c49493929190614e58565b6020604051808303816000875af192505050801561310057506040513d601f19601f820116820180604052508101906130fd9190614eb9565b60015b613182573d8060008114613130576040519150601f19603f3d011682016040523d82523d6000602084013e613135565b606091505b50600081510361317a576040517f08c379a000000000000000000000000000000000000000000000000000000000815260040161317190614b93565b60405180910390fd5b805181602001fd5b63150b7a0260e01b7bffffffffffffffffffffffffffffffffffffffffffffffffffffffff1916817bffffffffffffffffffffffffffffffffffffffffffffffffffffffff1916149150506131d7565b600190505b949350505050565b6060600060016131ee846132d0565b01905060008167ffffffffffffffff81111561320d5761320c61387f565b5b6040519080825280601f01601f19166020018201604052801561323f5781602001600182028036833780820191505090505b509050600082602001820190505b6001156132a2578080600190039150507f3031323334353637383961626364656600000000000000000000000000000000600a86061a8153600a858161329657613295614d0e565b5b0494506000850361324d575b819350505050919050565b6000808273ffffffffffffffffffffffffffffffffffffffff163b119050919050565b600080600090507a184f03e93ff9f4daa797ed6e38ed64bf6a1f010000000000000000831061332e577a184f03e93ff9f4daa797ed6e38ed64bf6a1f010000000000000000838161332457613323614d0e565b5b0492506040810190505b6d04ee2d6d415b85acef8100000000831061336b576d04ee2d6d415b85acef8100000000838161336157613360614d0e565b5b0492506020810190505b662386f26fc10000831061339a57662386f26fc1000083816133905761338f614d0e565b5b0492506010810190505b6305f5e10083106133c3576305f5e10083816133b9576133b8614d0e565b5b0492506008810190505b61271083106133e85761271083816133de576133dd614d0e565b5b0492506004810190505b6064831061340b576064838161340157613400614d0e565b5b0492506002810190505b600a831061341a576001810190505b80915050919050565b6000604051905090565b600080fd5b600080fd5b60007fffffffff0000000000000000000000000000000000000000000000000000000082169050919050565b61346c81613437565b811461347757600080fd5b50565b60008135905061348981613463565b92915050565b6000602082840312156134a5576134a461342d565b5b60006134b38482850161347a565b91505092915050565b60008115159050919050565b6134d1816134bc565b82525050565b60006020820190506134ec60008301846134c8565b92915050565b600081519050919050565b600082825260208201905092915050565b60005b8381101561352c578082015181840152602081019050613511565b60008484015250505050565b6000601f19601f8301169050919050565b6000613554826134f2565b61355e81856134fd565b935061356e81856020860161350e565b61357781613538565b840191505092915050565b6000602082019050818103600083015261359c8184613549565b905092915050565b6000819050919050565b6135b7816135a4565b81146135c257600080fd5b50565b6000813590506135d4816135ae565b92915050565b6000602082840312156135f0576135ef61342d565b5b60006135fe848285016135c5565b91505092915050565b600073ffffffffffffffffffffffffffffffffffffffff82169050919050565b600061363282613607565b9050919050565b61364281613627565b82525050565b600060208201905061365d6000830184613639565b92915050565b61366c81613627565b811461367757600080fd5b50565b60008135905061368981613663565b92915050565b600080604083850312156136a6576136a561342d565b5b60006136b48582860161367a565b92505060206136c5858286016135c5565b9150509250929050565b600081519050919050565b600082825260208201905092915050565b6000819050602082019050919050565b613704816135a4565b82525050565b61371381613627565b82525050565b613722816134bc565b82525050565b60808201600082015161373e60008501826136fb565b506020820151613751602085018261370a565b50604082015161376460408501826136fb565b5060608201516137776060850182613719565b50505050565b60006137898383613728565b60808301905092915050565b6000602082019050919050565b60006137ad826136cf565b6137b781856136da565b93506137c2836136eb565b8060005b838110156137f35781516137da888261377d565b97506137e583613795565b9250506001810190506137c6565b5085935050505092915050565b6000602082019050818103600083015261381a81846137a2565b905092915050565b60008060006060848603121561383b5761383a61342d565b5b60006138498682870161367a565b935050602061385a8682870161367a565b925050604061386b868287016135c5565b9150509250925092565b600080fd5b600080fd5b7f4e487b7100000000000000000000000000000000000000000000000000000000600052604160045260246000fd5b6138b782613538565b810181811067ffffffffffffffff821117156138d6576138d561387f565b5b80604052505050565b60006138e9613423565b90506138f582826138ae565b919050565b600067ffffffffffffffff8211156139155761391461387f565b5b61391e82613538565b9050602081019050919050565b82818337600083830152505050565b600061394d613948846138fa565b6138df565b9050828152602081018484840111156139695761396861387a565b5b61397484828561392b565b509392505050565b600082601f83011261399157613990613875565b5b81356139a184826020860161393a565b91505092915050565b6000602082840312156139c0576139bf61342d565b5b600082013567ffffffffffffffff8111156139de576139dd613432565b5b6139ea8482850161397c565b91505092915050565b6139fc816135a4565b82525050565b6000602082019050613a1760008301846139f3565b92915050565b600060208284031215613a3357613a3261342d565b5b6000613a418482850161367a565b91505092915050565b60008060408385031215613a6157613a6061342d565b5b6000613a6f858286016135c5565b9250506020613a80858286016135c5565b9150509250929050565b613a93816134bc565b8114613a9e57600080fd5b50565b600081359050613ab081613a8a565b92915050565b60008060408385031215613acd57613acc61342d565b5b6000613adb8582860161367a565b9250506020613aec85828601613aa1565b9150509250929050565b600067ffffffffffffffff821115613b1157613b1061387f565b5b613b1a82613538565b9050602081019050919050565b6000613b3a613b3584613af6565b6138df565b905082815260208101848484011115613b5657613b5561387a565b5b613b6184828561392b565b509392505050565b600082601f830112613b7e57613b7d613875565b5b8135613b8e848260208601613b27565b91505092915050565b60008060008060808587031215613bb157613bb061342d565b5b6000613bbf8782880161367a565b9450506020613bd08782880161367a565b9350506040613be1878288016135c5565b925050606085013567ffffffffffffffff811115613c0257613c01613432565b5b613c0e87828801613b69565b91505092959194509250565b60008060408385031215613c3157613c3061342d565b5b6000613c3f8582860161367a565b9250506020613c508582860161367a565b9150509250929050565b7f4e487b7100000000000000000000000000000000000000000000000000000000600052602260045260246000fd5b60006002820490506001821680613ca157607f821691505b602082108103613cb457613cb3613c5a565b5b50919050565b7f4552433732313a20617070726f76616c20746f2063757272656e74206f776e6560008201527f7200000000000000000000000000000000000000000000000000000000000000602082015250565b6000613d166021836134fd565b9150613d2182613cba565b604082019050919050565b60006020820190508181036000830152613d4581613d09565b9050919050565b7f4552433732313a20617070726f76652063616c6c6572206973206e6f7420746f60008201527f6b656e206f776e6572206f7220617070726f76656420666f7220616c6c000000602082015250565b6000613da8603d836134fd565b9150613db382613d4c565b604082019050919050565b60006020820190508181036000830152613dd781613d9b565b9050919050565b7f4552433732313a2063616c6c6572206973206e6f7420746f6b656e206f776e6560008201527f72206f7220617070726f76656400000000000000000000000000000000000000602082015250565b6000613e3a602d836134fd565b9150613e4582613dde565b604082019050919050565b60006020820190508181036000830152613e6981613e2d565b9050919050565b7f4552433732313a20696e76616c696420746f6b656e2049440000000000000000600082015250565b6000613ea66018836134fd565b9150613eb182613e70565b602082019050919050565b60006020820190508181036000830152613ed581613e99565b9050919050565b7f4552433732313a2061646472657373207a65726f206973206e6f74206120766160008201527f6c6964206f776e65720000000000000000000000000000000000000000000000602082015250565b6000613f386029836134fd565b9150613f4382613edc565b604082019050919050565b60006020820190508181036000830152613f6781613f2b565b9050919050565b7f4f6e6c7920746f6b656e206f776e65722063616e20706572666f726d2074686960008201527f73206f7065726174696f6e000000000000000000000000000000000000000000602082015250565b6000613fca602b836134fd565b9150613fd582613f6e565b604082019050919050565b60006020820190508181036000830152613ff981613fbd565b9050919050565b7f5072696365206d757374206265206174206c6561737420312077656900000000600082015250565b6000614036601c836134fd565b915061404182614000565b602082019050919050565b6000602082019050818103600083015261406581614029565b9050919050565b7f4e487b7100000000000000000000000000000000000000000000000000000000600052601160045260246000fd5b60006140a6826135a4565b91506140b1836135a4565b92508282039050818111156140c9576140c861406c565b5b92915050565b7f4e487b7100000000000000000000000000000000000000000000000000000000600052603260045260246000fd5b7f4974656d206973206e6f74206f6e2073616c652e000000000000000000000000600082015250565b60006141346014836134fd565b915061413f826140fe565b602082019050919050565b6000602082019050818103600083015261416381614127565b9050919050565b600060408201905061417f6000830185613639565b61418c6020830184613639565b9392505050565b6000815190506141a2816135ae565b92915050565b6000602082840312156141be576141bd61342d565b5b60006141cc84828501614193565b91505092915050565b7f5468697320636f6e7472616374206e6565647320617070726f76616c20666f7260008201527f206d73672e73656e646572000000000000000000000000000000000000000000602082015250565b6000614231602b836134fd565b915061423c826141d5565b604082019050919050565b6000602082019050818103600083015261426081614224565b9050919050565b600060408201905061427c60008301856139f3565b61428960208301846139f3565b9392505050565b600081905092915050565b60006142a6826134f2565b6142b08185614290565b93506142c081856020860161350e565b80840191505092915050565b60006142d8828561429b565b91506142e4828461429b565b91508190509392505050565b7f4f776e61626c653a206e6577206f776e657220697320746865207a65726f206160008201527f6464726573730000000000000000000000000000000000000000000000000000602082015250565b600061434c6026836134fd565b9150614357826142f0565b604082019050919050565b6000602082019050818103600083015261437b8161433f565b9050919050565b7f4552433732313a207472616e736665722066726f6d20696e636f72726563742060008201527f6f776e6572000000000000000000000000000000000000000000000000000000602082015250565b60006143de6025836134fd565b91506143e982614382565b604082019050919050565b6000602082019050818103600083015261440d816143d1565b9050919050565b7f4552433732313a207472616e7366657220746f20746865207a65726f2061646460008201527f7265737300000000000000000000000000000000000000000000000000000000602082015250565b60006144706024836134fd565b915061447b82614414565b604082019050919050565b6000602082019050818103600083015261449f81614463565b9050919050565b7f4f776e61626c653a2063616c6c6572206973206e6f7420746865206f776e6572600082015250565b60006144dc6020836134fd565b91506144e7826144a6565b602082019050919050565b6000602082019050818103600083015261450b816144cf565b9050919050565b7f4552433732313a206d696e7420746f20746865207a65726f2061646472657373600082015250565b60006145486020836134fd565b915061455382614512565b602082019050919050565b600060208201905081810360008301526145778161453b565b9050919050565b7f4552433732313a20746f6b656e20616c7265616479206d696e74656400000000600082015250565b60006145b4601c836134fd565b91506145bf8261457e565b602082019050919050565b600060208201905081810360008301526145e3816145a7565b9050919050565b7f45524337323155524953746f726167653a2055524920736574206f66206e6f6e60008201527f6578697374656e7420746f6b656e000000000000000000000000000000000000602082015250565b6000614646602e836134fd565b9150614651826145ea565b604082019050919050565b6000602082019050818103600083015261467581614639565b9050919050565b60008190508160005260206000209050919050565b60006020601f8301049050919050565b600082821b905092915050565b6000600883026146de7fffffffffffffffffffffffffffffffffffffffffffffffffffffffffffffffff826146a1565b6146e886836146a1565b95508019841693508086168417925050509392505050565b6000819050919050565b600061472561472061471b846135a4565b614700565b6135a4565b9050919050565b6000819050919050565b61473f8361470a565b61475361474b8261472c565b8484546146ae565b825550505050565b600090565b61476861475b565b614773818484614736565b505050565b5b818110156147975761478c600082614760565b600181019050614779565b5050565b601f8211156147dc576147ad8161467c565b6147b684614691565b810160208510156147c5578190505b6147d96147d185614691565b830182614778565b50505b505050565b600082821c905092915050565b60006147ff600019846008026147e1565b1980831691505092915050565b600061481883836147ee565b9150826002028217905092915050565b614831826134f2565b67ffffffffffffffff81111561484a5761484961387f565b5b6148548254613c89565b61485f82828561479b565b600060209050601f8311600181146148925760008415614880578287015190505b61488a858261480c565b8655506148f2565b601f1984166148a08661467c565b60005b828110156148c8578489015182556001820191506020850194506020810190506148a3565b868310156148e557848901516148e1601f8916826147ee565b8355505b6001600288020188555050505b505050505050565b7f43616e27742066696e642066726f6d20656d7074792061727261790000000000600082015250565b6000614930601b836134fd565b915061493b826148fa565b602082019050919050565b6000602082019050818103600083015261495f81614923565b9050919050565b6000614971826135a4565b91507fffffffffffffffffffffffffffffffffffffffffffffffffffffffffffffffff82036149a3576149a261406c565b5b600182019050919050565b7f4552433732313a20617070726f766520746f2063616c6c657200000000000000600082015250565b60006149e46019836134fd565b91506149ef826149ae565b602082019050919050565b60006020820190508181036000830152614a13816149d7565b9050919050565b7f43616e27742072656d6f76652066726f6d20656d707479206172726179000000600082015250565b6000614a50601d836134fd565b9150614a5b82614a1a565b602082019050919050565b60006020820190508181036000830152614a7f81614a43565b9050919050565b7f696e646578206f7574206f6620626f756e640000000000000000000000000000600082015250565b6000614abc6012836134fd565b9150614ac782614a86565b602082019050919050565b60006020820190508181036000830152614aeb81614aaf565b9050919050565b7f4e487b7100000000000000000000000000000000000000000000000000000000600052603160045260246000fd5b7f4552433732313a207472616e7366657220746f206e6f6e20455243373231526560008201527f63656976657220696d706c656d656e7465720000000000000000000000000000602082015250565b6000614b7d6032836134fd565b9150614b8882614b21565b604082019050919050565b60006020820190508181036000830152614bac81614b70565b9050919050565b7f496e737566696369656e742062616c616e6365206f6620455243323000000000600082015250565b6000614be9601c836134fd565b9150614bf482614bb3565b602082019050919050565b60006020820190508181036000830152614c1881614bdc565b9050919050565b6000606082019050614c346000830186613639565b614c416020830185613639565b614c4e60408301846139f3565b949350505050565b600081519050614c6581613a8a565b92915050565b600060208284031215614c8157614c8061342d565b5b6000614c8f84828501614c56565b91505092915050565b6000614ca3826135a4565b9150614cae836135a4565b9250828201905080821115614cc657614cc561406c565b5b92915050565b6000614cd7826135a4565b9150614ce2836135a4565b9250828202614cf0816135a4565b91508282048414831517614d0757614d0661406c565b5b5092915050565b7f4e487b7100000000000000000000000000000000000000000000000000000000600052601260045260246000fd5b6000614d48826135a4565b9150614d53836135a4565b925082614d6357614d62614d0e565b5b828204905092915050565b7f496e737566696369656e74206465706f73697473206f66204552433230000000600082015250565b6000614da4601d836134fd565b9150614daf82614d6e565b602082019050919050565b60006020820190508181036000830152614dd381614d97565b9050919050565b6000604082019050614def6000830185613639565b614dfc60208301846139f3565b9392505050565b600081519050919050565b600082825260208201905092915050565b6000614e2a82614e03565b614e348185614e0e565b9350614e4481856020860161350e565b614e4d81613538565b840191505092915050565b6000608082019050614e6d6000830187613639565b614e7a6020830186613639565b614e8760408301856139f3565b8181036060830152614e998184614e1f565b905095945050505050565b600081519050614eb381613463565b92915050565b600060208284031215614ecf57614ece61342d565b5b6000614edd84828501614ea4565b9150509291505056fea26469706673582212201c5b577d820d8c1976cee6935461c94bb7b18cc1e25d8d5381592b594db0fc0464736f6c63430008140033",
  "linkReferences": {},
  "deployedLinkReferences": {}
}