{
  "_format": "hh-sol-artifact-1",
  "contractName": "USDCSepoliaFaucet",
  "sourceName": "contracts/USDCSepoliaFaucet.sol",
  "abi": [
    {
      "inputs": [
        {
          "internalType": "uint256",
          "name": "_tokensPerDay",
          "type": "uint256"
        }
      ],
      "stateMutability": "nonpayable",
      "type": "constructor"
    },
    {
      "anonymous": false,
      "inputs": [
        {
          "indexed": true,
          "internalType": "address",
          "name": "previousOwner",
          "type": "address"
        },
        {
          "indexed": true,
          "internalType": "address",
          "name": "newOwner",
          "type": "address"
        }
      ],
      "name": "OwnershipTransferred",
      "type": "event"
    },
    {
      "anonymous": false,
      "inputs": [
        {
          "indexed": true,
          "internalType": "address",
          "name": "recipient",
          "type": "address"
        },
        {
          "indexed": false,
          "internalType": "uint256",
          "name": "amount",
          "type": "uint256"
        }
      ],
      "name": "TokensClaimed",
      "type": "event"
    },
    {
      "inputs": [],
      "name": "claimTokens",
      "outputs": [],
      "stateMutability": "nonpayable",
      "type": "function"
    },
    {
      "inputs": [
        {
          "internalType": "address",
          "name": "",
          "type": "address"
        }
      ],
      "name": "lastClaimTime",
      "outputs": [
        {
          "internalType": "uint256",
          "name": "",
          "type": "uint256"
        }
      ],
      "stateMutability": "view",
      "type": "function"
    },
    {
      "inputs": [],
      "name": "owner",
      "outputs": [
        {
          "internalType": "address",
          "name": "",
          "type": "address"
        }
      ],
      "stateMutability": "view",
      "type": "function"
    },
    {
      "inputs": [],
      "name": "renounceOwnership",
      "outputs": [],
      "stateMutability": "nonpayable",
      "type": "function"
    },
    {
      "inputs": [
        {
          "internalType": "uint256",
          "name": "_tokensPerDay",
          "type": "uint256"
        }
      ],
      "name": "setTokensPerDay",
      "outputs": [],
      "stateMutability": "nonpayable",
      "type": "function"
    },
    {
      "inputs": [],
      "name": "tokensPerDay",
      "outputs": [
        {
          "internalType": "uint256",
          "name": "",
          "type": "uint256"
        }
      ],
      "stateMutability": "view",
      "type": "function"
    },
    {
      "inputs": [
        {
          "internalType": "address",
          "name": "newOwner",
          "type": "address"
        }
      ],
      "name": "transferOwnership",
      "outputs": [],
      "stateMutability": "nonpayable",
      "type": "function"
    },
    {
      "inputs": [],
      "name": "withdraw",
      "outputs": [],
      "stateMutability": "nonpayable",
      "type": "function"
    }
  ],
  "bytecode": "0x608060405234801561001057600080fd5b50604051610da2380380610da283398181016040528101906100329190610162565b61004e61004361005b60201b60201c565b61006360201b60201c565b806001819055505061018f565b600033905090565b60008060009054906101000a900473ffffffffffffffffffffffffffffffffffffffff169050816000806101000a81548173ffffffffffffffffffffffffffffffffffffffff021916908373ffffffffffffffffffffffffffffffffffffffff1602179055508173ffffffffffffffffffffffffffffffffffffffff168173ffffffffffffffffffffffffffffffffffffffff167f8be0079c531659141344cd1fd0a4f28419497f9722a3daafe3b4186f6b6457e060405160405180910390a35050565b600080fd5b6000819050919050565b61013f8161012c565b811461014a57600080fd5b50565b60008151905061015c81610136565b92915050565b60006020828403121561017857610177610127565b5b60006101868482850161014d565b91505092915050565b610c048061019e6000396000f3fe608060405234801561001057600080fd5b50600436106100885760003560e01c80638da5cb5b1161005b5780638da5cb5b146100c757806390497c66146100e5578063b77cf9c614610103578063f2fde38b1461013357610088565b80632bb185541461008d5780633ccfd60b146100a957806348c54b9d146100b3578063715018a6146100bd575b600080fd5b6100a760048036038101906100a29190610782565b61014f565b005b6100b1610161565b005b6100bb610292565b005b6100c561051f565b005b6100cf610533565b6040516100dc91906107f0565b60405180910390f35b6100ed61055c565b6040516100fa919061081a565b60405180910390f35b61011d60048036038101906101189190610861565b610562565b60405161012a919061081a565b60405180910390f35b61014d60048036038101906101489190610861565b61057a565b005b6101576105fd565b8060018190555050565b6101696105fd565b7382346f167b2b938a56afdb694753c5ba7a2ab55073ffffffffffffffffffffffffffffffffffffffff1663a9059cbb6101a1610533565b7382346f167b2b938a56afdb694753c5ba7a2ab55073ffffffffffffffffffffffffffffffffffffffff166370a08231306040518263ffffffff1660e01b81526004016101ee91906107f0565b602060405180830381865afa15801561020b573d6000803e3d6000fd5b505050506040513d601f19601f8201168201806040525081019061022f91906108a3565b6040518363ffffffff1660e01b815260040161024c9291906108d0565b6020604051808303816000875af115801561026b573d6000803e3d6000fd5b505050506040513d601f19601f8201168201806040525081019061028f9190610931565b50565b62015180600260003373ffffffffffffffffffffffffffffffffffffffff1673ffffffffffffffffffffffffffffffffffffffff16815260200190815260200160002054426102e1919061098d565b1015610322576040517f08c379a000000000000000000000000000000000000000000000000000000000815260040161031990610a1e565b60405180910390fd5b6001547382346f167b2b938a56afdb694753c5ba7a2ab55073ffffffffffffffffffffffffffffffffffffffff166370a08231306040518263ffffffff1660e01b815260040161037291906107f0565b602060405180830381865afa15801561038f573d6000803e3d6000fd5b505050506040513d601f19601f820116820180604052508101906103b391906108a3565b10156103f4576040517f08c379a00000000000000000000000000000000000000000000000000000000081526004016103eb90610ab0565b60405180910390fd5b42600260003373ffffffffffffffffffffffffffffffffffffffff1673ffffffffffffffffffffffffffffffffffffffff168152602001908152602001600020819055507382346f167b2b938a56afdb694753c5ba7a2ab55073ffffffffffffffffffffffffffffffffffffffff1663a9059cbb336001546040518363ffffffff1660e01b81526004016104899291906108d0565b6020604051808303816000875af11580156104a8573d6000803e3d6000fd5b505050506040513d601f19601f820116820180604052508101906104cc9190610931565b503373ffffffffffffffffffffffffffffffffffffffff167f896e034966eaaf1adc54acc0f257056febbd300c9e47182cf761982cf1f5e430600154604051610515919061081a565b60405180910390a2565b6105276105fd565b610531600061067b565b565b60008060009054906101000a900473ffffffffffffffffffffffffffffffffffffffff16905090565b60015481565b60026020528060005260406000206000915090505481565b6105826105fd565b600073ffffffffffffffffffffffffffffffffffffffff168173ffffffffffffffffffffffffffffffffffffffff16036105f1576040517f08c379a00000000000000000000000000000000000000000000000000000000081526004016105e890610b42565b60405180910390fd5b6105fa8161067b565b50565b61060561073f565b73ffffffffffffffffffffffffffffffffffffffff16610623610533565b73ffffffffffffffffffffffffffffffffffffffff1614610679576040517f08c379a000000000000000000000000000000000000000000000000000000000815260040161067090610bae565b60405180910390fd5b565b60008060009054906101000a900473ffffffffffffffffffffffffffffffffffffffff169050816000806101000a81548173ffffffffffffffffffffffffffffffffffffffff021916908373ffffffffffffffffffffffffffffffffffffffff1602179055508173ffffffffffffffffffffffffffffffffffffffff168173ffffffffffffffffffffffffffffffffffffffff167f8be0079c531659141344cd1fd0a4f28419497f9722a3daafe3b4186f6b6457e060405160405180910390a35050565b600033905090565b600080fd5b6000819050919050565b61075f8161074c565b811461076a57600080fd5b50565b60008135905061077c81610756565b92915050565b60006020828403121561079857610797610747565b5b60006107a68482850161076d565b91505092915050565b600073ffffffffffffffffffffffffffffffffffffffff82169050919050565b60006107da826107af565b9050919050565b6107ea816107cf565b82525050565b600060208201905061080560008301846107e1565b92915050565b6108148161074c565b82525050565b600060208201905061082f600083018461080b565b92915050565b61083e816107cf565b811461084957600080fd5b50565b60008135905061085b81610835565b92915050565b60006020828403121561087757610876610747565b5b60006108858482850161084c565b91505092915050565b60008151905061089d81610756565b92915050565b6000602082840312156108b9576108b8610747565b5b60006108c78482850161088e565b91505092915050565b60006040820190506108e560008301856107e1565b6108f2602083018461080b565b9392505050565b60008115159050919050565b61090e816108f9565b811461091957600080fd5b50565b60008151905061092b81610905565b92915050565b60006020828403121561094757610946610747565b5b60006109558482850161091c565b91505092915050565b7f4e487b7100000000000000000000000000000000000000000000000000000000600052601160045260246000fd5b60006109988261074c565b91506109a38361074c565b92508282039050818111156109bb576109ba61095e565b5b92915050565b600082825260208201905092915050565b7f43616e206f6e6c7920636c61696d206f6e636520612064617900000000000000600082015250565b6000610a086019836109c1565b9150610a13826109d2565b602082019050919050565b60006020820190508181036000830152610a37816109fb565b9050919050565b7f496e73756666696369656e7420746f6b656e7320696e2074686520666175636560008201527f7400000000000000000000000000000000000000000000000000000000000000602082015250565b6000610a9a6021836109c1565b9150610aa582610a3e565b604082019050919050565b60006020820190508181036000830152610ac981610a8d565b9050919050565b7f4f776e61626c653a206e6577206f776e657220697320746865207a65726f206160008201527f6464726573730000000000000000000000000000000000000000000000000000602082015250565b6000610b2c6026836109c1565b9150610b3782610ad0565b604082019050919050565b60006020820190508181036000830152610b5b81610b1f565b9050919050565b7f4f776e61626c653a2063616c6c6572206973206e6f7420746865206f776e6572600082015250565b6000610b986020836109c1565b9150610ba382610b62565b602082019050919050565b60006020820190508181036000830152610bc781610b8b565b905091905056fea2646970667358221220b71a93c016862a9a2b76afb5e879ec191b08e69f9bf2f09d027ee5adb80ff37a64736f6c63430008140033",
  "linkReferences": {},
  "deployedLinkReferences": {}
}